{
  "address": "0x8BC6f5b2ffc5391d0B1a2871675CbbDBfBF6C116",
  "abi": [
    {
      "inputs": [
        {
          "internalType": "string",
          "name": "_tokenbaseURI",
          "type": "string"
        },
        {
          "internalType": "address",
          "name": "_whitelistContract",
          "type": "address"
        }
      ],
      "stateMutability": "nonpayable",
      "type": "constructor"
    },
    {
      "anonymous": false,
      "inputs": [
        {
          "indexed": true,
          "internalType": "address",
          "name": "owner",
          "type": "address"
        },
        {
          "indexed": true,
          "internalType": "address",
          "name": "approved",
          "type": "address"
        },
        {
          "indexed": true,
          "internalType": "uint256",
          "name": "tokenId",
          "type": "uint256"
        }
      ],
      "name": "Approval",
      "type": "event"
    },
    {
      "anonymous": false,
      "inputs": [
        {
          "indexed": true,
          "internalType": "address",
          "name": "owner",
          "type": "address"
        },
        {
          "indexed": true,
          "internalType": "address",
          "name": "operator",
          "type": "address"
        },
        {
          "indexed": false,
          "internalType": "bool",
          "name": "approved",
          "type": "bool"
        }
      ],
      "name": "ApprovalForAll",
      "type": "event"
    },
    {
      "anonymous": false,
      "inputs": [
        {
          "indexed": true,
          "internalType": "address",
          "name": "previousOwner",
          "type": "address"
        },
        {
          "indexed": true,
          "internalType": "address",
          "name": "newOwner",
          "type": "address"
        }
      ],
      "name": "OwnershipTransferred",
      "type": "event"
    },
    {
      "anonymous": false,
      "inputs": [
        {
          "indexed": true,
          "internalType": "address",
          "name": "from",
          "type": "address"
        },
        {
          "indexed": true,
          "internalType": "address",
          "name": "to",
          "type": "address"
        },
        {
          "indexed": true,
          "internalType": "uint256",
          "name": "tokenId",
          "type": "uint256"
        }
      ],
      "name": "Transfer",
      "type": "event"
    },
    {
      "stateMutability": "payable",
      "type": "fallback"
    },
    {
      "inputs": [],
      "name": "Mint",
      "outputs": [],
      "stateMutability": "payable",
      "type": "function"
    },
    {
      "inputs": [],
      "name": "_paused",
      "outputs": [
        {
          "internalType": "bool",
          "name": "",
          "type": "bool"
        }
      ],
      "stateMutability": "view",
      "type": "function"
    },
    {
      "inputs": [],
      "name": "_price",
      "outputs": [
        {
          "internalType": "uint256",
          "name": "",
          "type": "uint256"
        }
      ],
      "stateMutability": "view",
      "type": "function"
    },
    {
      "inputs": [
        {
          "internalType": "address",
          "name": "to",
          "type": "address"
        },
        {
          "internalType": "uint256",
          "name": "tokenId",
          "type": "uint256"
        }
      ],
      "name": "approve",
      "outputs": [],
      "stateMutability": "nonpayable",
      "type": "function"
    },
    {
      "inputs": [
        {
          "internalType": "address",
          "name": "owner",
          "type": "address"
        }
      ],
      "name": "balanceOf",
      "outputs": [
        {
          "internalType": "uint256",
          "name": "",
          "type": "uint256"
        }
      ],
      "stateMutability": "view",
      "type": "function"
    },
    {
      "inputs": [
        {
          "internalType": "uint256",
          "name": "tokenId",
          "type": "uint256"
        }
      ],
      "name": "getApproved",
      "outputs": [
        {
          "internalType": "address",
          "name": "",
          "type": "address"
        }
      ],
      "stateMutability": "view",
      "type": "function"
    },
    {
      "inputs": [],
      "name": "getTokenIds",
      "outputs": [
        {
          "internalType": "uint256",
          "name": "",
          "type": "uint256"
        }
      ],
      "stateMutability": "view",
      "type": "function"
    },
    {
      "inputs": [
        {
          "internalType": "address",
          "name": "owner",
          "type": "address"
        },
        {
          "internalType": "address",
          "name": "operator",
          "type": "address"
        }
      ],
      "name": "isApprovedForAll",
      "outputs": [
        {
          "internalType": "bool",
          "name": "",
          "type": "bool"
        }
      ],
      "stateMutability": "view",
      "type": "function"
    },
    {
      "inputs": [],
      "name": "maxTokenIds",
      "outputs": [
        {
          "internalType": "uint256",
          "name": "",
          "type": "uint256"
        }
      ],
      "stateMutability": "view",
      "type": "function"
    },
    {
      "inputs": [],
      "name": "name",
      "outputs": [
        {
          "internalType": "string",
          "name": "",
          "type": "string"
        }
      ],
      "stateMutability": "view",
      "type": "function"
    },
    {
      "inputs": [],
      "name": "owner",
      "outputs": [
        {
          "internalType": "address",
          "name": "",
          "type": "address"
        }
      ],
      "stateMutability": "view",
      "type": "function"
    },
    {
      "inputs": [
        {
          "internalType": "uint256",
          "name": "tokenId",
          "type": "uint256"
        }
      ],
      "name": "ownerOf",
      "outputs": [
        {
          "internalType": "address",
          "name": "",
          "type": "address"
        }
      ],
      "stateMutability": "view",
      "type": "function"
    },
    {
      "inputs": [],
      "name": "presaleEnded",
      "outputs": [
        {
          "internalType": "uint256",
          "name": "",
          "type": "uint256"
        }
      ],
      "stateMutability": "view",
      "type": "function"
    },
    {
      "inputs": [],
      "name": "presaleMint",
      "outputs": [],
      "stateMutability": "payable",
      "type": "function"
    },
    {
      "inputs": [],
      "name": "presaleStarted",
      "outputs": [
        {
          "internalType": "bool",
          "name": "",
          "type": "bool"
        }
      ],
      "stateMutability": "view",
      "type": "function"
    },
    {
      "inputs": [],
      "name": "renounceOwnership",
      "outputs": [],
      "stateMutability": "nonpayable",
      "type": "function"
    },
    {
      "inputs": [
        {
          "internalType": "address",
          "name": "from",
          "type": "address"
        },
        {
          "internalType": "address",
          "name": "to",
          "type": "address"
        },
        {
          "internalType": "uint256",
          "name": "tokenId",
          "type": "uint256"
        }
      ],
      "name": "safeTransferFrom",
      "outputs": [],
      "stateMutability": "nonpayable",
      "type": "function"
    },
    {
      "inputs": [
        {
          "internalType": "address",
          "name": "from",
          "type": "address"
        },
        {
          "internalType": "address",
          "name": "to",
          "type": "address"
        },
        {
          "internalType": "uint256",
          "name": "tokenId",
          "type": "uint256"
        },
        {
          "internalType": "bytes",
          "name": "data",
          "type": "bytes"
        }
      ],
      "name": "safeTransferFrom",
      "outputs": [],
      "stateMutability": "nonpayable",
      "type": "function"
    },
    {
      "inputs": [
        {
          "internalType": "address",
          "name": "operator",
          "type": "address"
        },
        {
          "internalType": "bool",
          "name": "approved",
          "type": "bool"
        }
      ],
      "name": "setApprovalForAll",
      "outputs": [],
      "stateMutability": "nonpayable",
      "type": "function"
    },
    {
      "inputs": [
        {
          "internalType": "bool",
          "name": "val",
          "type": "bool"
        }
      ],
      "name": "setPaused",
      "outputs": [],
      "stateMutability": "nonpayable",
      "type": "function"
    },
    {
      "inputs": [
        {
          "internalType": "uint256",
          "name": "_time",
          "type": "uint256"
        }
      ],
      "name": "startPresale",
      "outputs": [],
      "stateMutability": "nonpayable",
      "type": "function"
    },
    {
      "inputs": [
        {
          "internalType": "bytes4",
          "name": "interfaceId",
          "type": "bytes4"
        }
      ],
      "name": "supportsInterface",
      "outputs": [
        {
          "internalType": "bool",
          "name": "",
          "type": "bool"
        }
      ],
      "stateMutability": "view",
      "type": "function"
    },
    {
      "inputs": [],
      "name": "symbol",
      "outputs": [
        {
          "internalType": "string",
          "name": "",
          "type": "string"
        }
      ],
      "stateMutability": "view",
      "type": "function"
    },
    {
      "inputs": [
        {
          "internalType": "uint256",
          "name": "index",
          "type": "uint256"
        }
      ],
      "name": "tokenByIndex",
      "outputs": [
        {
          "internalType": "uint256",
          "name": "",
          "type": "uint256"
        }
      ],
      "stateMutability": "view",
      "type": "function"
    },
    {
      "inputs": [
        {
          "internalType": "address",
          "name": "owner",
          "type": "address"
        },
        {
          "internalType": "uint256",
          "name": "index",
          "type": "uint256"
        }
      ],
      "name": "tokenOfOwnerByIndex",
      "outputs": [
        {
          "internalType": "uint256",
          "name": "",
          "type": "uint256"
        }
      ],
      "stateMutability": "view",
      "type": "function"
    },
    {
      "inputs": [
        {
          "internalType": "uint256",
          "name": "tokenId",
          "type": "uint256"
        }
      ],
      "name": "tokenURI",
      "outputs": [
        {
          "internalType": "string",
          "name": "",
          "type": "string"
        }
      ],
      "stateMutability": "view",
      "type": "function"
    },
    {
      "inputs": [],
      "name": "totalSupply",
      "outputs": [
        {
          "internalType": "uint256",
          "name": "",
          "type": "uint256"
        }
      ],
      "stateMutability": "view",
      "type": "function"
    },
    {
      "inputs": [
        {
          "internalType": "address",
          "name": "from",
          "type": "address"
        },
        {
          "internalType": "address",
          "name": "to",
          "type": "address"
        },
        {
          "internalType": "uint256",
          "name": "tokenId",
          "type": "uint256"
        }
      ],
      "name": "transferFrom",
      "outputs": [],
      "stateMutability": "nonpayable",
      "type": "function"
    },
    {
      "inputs": [
        {
          "internalType": "address",
          "name": "newOwner",
          "type": "address"
        }
      ],
      "name": "transferOwnership",
      "outputs": [],
      "stateMutability": "nonpayable",
      "type": "function"
    },
    {
      "inputs": [],
      "name": "withdraw",
      "outputs": [],
      "stateMutability": "nonpayable",
      "type": "function"
    },
    {
      "stateMutability": "payable",
      "type": "receive"
    }
  ],
  "transactionHash": "0xe1ba96bb2019164e1fae0c2a111a32607d3c49e65e0d5abe6d7053980cea233c",
  "args": [
    "https://smart-dapps-dapps-j97c.vercel.app/api/",
    "0x31b71735b7C2e69e7e4Aa4Eb68B0B53075F6E980"
  ],
  "numDeployments": 4,
  "solcInputHash": "2e464fcb97046d521363fd57f1f82be6",
  "bytecode": "0x6080604052662386f26fc10000600b556014600c553480156200002157600080fd5b50604051620044ff380380620044ff83398181016040528101906200004791906200041a565b6040518060400160405280600a81526020017f43727970746f44657673000000000000000000000000000000000000000000008152506040518060400160405280600281526020017f43440000000000000000000000000000000000000000000000000000000000008152508160009081620000c49190620006cb565b508060019081620000d69190620006cb565b505050620000f9620000ed6200015460201b60201c565b6200015c60201b60201c565b81600f90816200010a9190620006cb565b5080601060006101000a81548173ffffffffffffffffffffffffffffffffffffffff021916908373ffffffffffffffffffffffffffffffffffffffff1602179055505050620007b2565b600033905090565b6000600a60009054906101000a900473ffffffffffffffffffffffffffffffffffffffff16905081600a60006101000a81548173ffffffffffffffffffffffffffffffffffffffff021916908373ffffffffffffffffffffffffffffffffffffffff1602179055508173ffffffffffffffffffffffffffffffffffffffff168173ffffffffffffffffffffffffffffffffffffffff167f8be0079c531659141344cd1fd0a4f28419497f9722a3daafe3b4186f6b6457e060405160405180910390a35050565b6000604051905090565b600080fd5b600080fd5b600080fd5b600080fd5b6000601f19601f8301169050919050565b7f4e487b7100000000000000000000000000000000000000000000000000000000600052604160045260246000fd5b6200028b8262000240565b810181811067ffffffffffffffff82111715620002ad57620002ac62000251565b5b80604052505050565b6000620002c262000222565b9050620002d0828262000280565b919050565b600067ffffffffffffffff821115620002f357620002f262000251565b5b620002fe8262000240565b9050602081019050919050565b60005b838110156200032b5780820151818401526020810190506200030e565b60008484015250505050565b60006200034e6200034884620002d5565b620002b6565b9050828152602081018484840111156200036d576200036c6200023b565b5b6200037a8482856200030b565b509392505050565b600082601f8301126200039a576200039962000236565b5b8151620003ac84826020860162000337565b91505092915050565b600073ffffffffffffffffffffffffffffffffffffffff82169050919050565b6000620003e282620003b5565b9050919050565b620003f481620003d5565b81146200040057600080fd5b50565b6000815190506200041481620003e9565b92915050565b600080604083850312156200043457620004336200022c565b5b600083015167ffffffffffffffff81111562000455576200045462000231565b5b620004638582860162000382565b9250506020620004768582860162000403565b9150509250929050565b600081519050919050565b7f4e487b7100000000000000000000000000000000000000000000000000000000600052602260045260246000fd5b60006002820490506001821680620004d357607f821691505b602082108103620004e957620004e86200048b565b5b50919050565b60008190508160005260206000209050919050565b60006020601f8301049050919050565b600082821b905092915050565b600060088302620005537fffffffffffffffffffffffffffffffffffffffffffffffffffffffffffffffff8262000514565b6200055f868362000514565b95508019841693508086168417925050509392505050565b6000819050919050565b6000819050919050565b6000620005ac620005a6620005a08462000577565b62000581565b62000577565b9050919050565b6000819050919050565b620005c8836200058b565b620005e0620005d782620005b3565b84845462000521565b825550505050565b600090565b620005f7620005e8565b62000604818484620005bd565b505050565b5b818110156200062c5762000620600082620005ed565b6001810190506200060a565b5050565b601f8211156200067b576200064581620004ef565b620006508462000504565b8101602085101562000660578190505b620006786200066f8562000504565b83018262000609565b50505b505050565b600082821c905092915050565b6000620006a06000198460080262000680565b1980831691505092915050565b6000620006bb83836200068d565b9150826002028217905092915050565b620006d68262000480565b67ffffffffffffffff811115620006f257620006f162000251565b5b620006fe8254620004ba565b6200070b82828562000630565b600060209050601f8311600181146200074357600084156200072e578287015190505b6200073a8582620006ad565b865550620007aa565b601f1984166200075386620004ef565b60005b828110156200077d5784890151825560018201915060208501945060208101905062000756565b868310156200079d578489015162000799601f8916826200068d565b8355505b6001600288020188555050505b505050505050565b613d3d80620007c26000396000f3fe6080604052600436106101d15760003560e01c806359533d6c116100f757806395d89b4111610095578063c87b56dd11610064578063c87b56dd1461062c578063e580b2b014610669578063e985e9c514610694578063f2fde38b146106d1576101d8565b806395d89b4114610586578063a132aad1146105b1578063a22cb465146105da578063b88d4fde14610603576101d8565b806367f718a9116100d157806367f718a9146104dc57806370a0823114610507578063715018a6146105445780638da5cb5b1461055b576101d8565b806359533d6c1461046a5780635f769621146104745780636352211e1461049f576101d8565b806318160ddd1161016f57806334c738841161013e57806334c73884146103e35780633ccfd60b146103ed57806342842e0e146104045780634f6ccce71461042d576101d8565b806318160ddd14610327578063235b6ea11461035257806323b872dd1461037d5780632f745c59146103a6576101d8565b8063081812fc116101ab578063081812fc1461026d578063095ea7b3146102aa57806316c38b3c146102d357806316c61ccc146102fc576101d8565b806301ffc9a7146101da57806304549d6f1461021757806306fdde0314610242576101d8565b366101d857005b005b3480156101e657600080fd5b5061020160048036038101906101fc91906127fb565b6106fa565b60405161020e9190612843565b60405180910390f35b34801561022357600080fd5b5061022c610774565b6040516102399190612843565b60405180910390f35b34801561024e57600080fd5b50610257610787565b60405161026491906128ee565b60405180910390f35b34801561027957600080fd5b50610294600480360381019061028f9190612946565b610819565b6040516102a191906129b4565b60405180910390f35b3480156102b657600080fd5b506102d160048036038101906102cc91906129fb565b61085f565b005b3480156102df57600080fd5b506102fa60048036038101906102f59190612a67565b610976565b005b34801561030857600080fd5b5061031161099b565b60405161031e9190612843565b60405180910390f35b34801561033357600080fd5b5061033c6109ae565b6040516103499190612aa3565b60405180910390f35b34801561035e57600080fd5b506103676109bb565b6040516103749190612aa3565b60405180910390f35b34801561038957600080fd5b506103a4600480360381019061039f9190612abe565b6109c1565b005b3480156103b257600080fd5b506103cd60048036038101906103c891906129fb565b610a21565b6040516103da9190612aa3565b60405180910390f35b6103eb610ac6565b005b3480156103f957600080fd5b50610402610c20565b005b34801561041057600080fd5b5061042b60048036038101906104269190612abe565b610cea565b005b34801561043957600080fd5b50610454600480360381019061044f9190612946565b610d0a565b6040516104619190612aa3565b60405180910390f35b610472610d7b565b005b34801561048057600080fd5b50610489610fb0565b6040516104969190612aa3565b60405180910390f35b3480156104ab57600080fd5b506104c660048036038101906104c19190612946565b610fb6565b6040516104d391906129b4565b60405180910390f35b3480156104e857600080fd5b506104f1611067565b6040516104fe9190612aa3565b60405180910390f35b34801561051357600080fd5b5061052e60048036038101906105299190612b11565b611078565b60405161053b9190612aa3565b60405180910390f35b34801561055057600080fd5b5061055961112f565b005b34801561056757600080fd5b50610570611143565b60405161057d91906129b4565b60405180910390f35b34801561059257600080fd5b5061059b61116d565b6040516105a891906128ee565b60405180910390f35b3480156105bd57600080fd5b506105d860048036038101906105d39190612946565b6111ff565b005b3480156105e657600080fd5b5061060160048036038101906105fc9190612b3e565b611293565b005b34801561060f57600080fd5b5061062a60048036038101906106259190612cb3565b6112a9565b005b34801561063857600080fd5b50610653600480360381019061064e9190612946565b61130b565b60405161066091906128ee565b60405180910390f35b34801561067557600080fd5b5061067e611373565b60405161068b9190612aa3565b60405180910390f35b3480156106a057600080fd5b506106bb60048036038101906106b69190612d36565b611379565b6040516106c89190612843565b60405180910390f35b3480156106dd57600080fd5b506106f860048036038101906106f39190612b11565b61140d565b005b60007f780e9d63000000000000000000000000000000000000000000000000000000007bffffffffffffffffffffffffffffffffffffffffffffffffffffffff1916827bffffffffffffffffffffffffffffffffffffffffffffffffffffffff1916148061076d575061076c82611490565b5b9050919050565b600a60159054906101000a900460ff1681565b60606000805461079690612da5565b80601f01602080910402602001604051908101604052809291908181526020018280546107c290612da5565b801561080f5780601f106107e45761010080835404028352916020019161080f565b820191906000526020600020905b8154815290600101906020018083116107f257829003601f168201915b5050505050905090565b600061082482611572565b6004600083815260200190815260200160002060009054906101000a900473ffffffffffffffffffffffffffffffffffffffff169050919050565b600061086a82610fb6565b90508073ffffffffffffffffffffffffffffffffffffffff168373ffffffffffffffffffffffffffffffffffffffff16036108da576040517f08c379a00000000000000000000000000000000000000000000000000000000081526004016108d190612e48565b60405180910390fd5b8073ffffffffffffffffffffffffffffffffffffffff166108f96115bd565b73ffffffffffffffffffffffffffffffffffffffff1614806109285750610927816109226115bd565b611379565b5b610967576040517f08c379a000000000000000000000000000000000000000000000000000000000815260040161095e90612eda565b60405180910390fd5b61097183836115c5565b505050565b61097e61167e565b80600a60146101000a81548160ff02191690831515021790555050565b600a60149054906101000a900460ff1681565b6000600880549050905090565b600b5481565b6109d26109cc6115bd565b826116fc565b610a11576040517f08c379a0000000000000000000000000000000000000000000000000000000008152600401610a0890612f6c565b60405180910390fd5b610a1c838383611791565b505050565b6000610a2c83611078565b8210610a6d576040517f08c379a0000000000000000000000000000000000000000000000000000000008152600401610a6490612ffe565b60405180910390fd5b600660008473ffffffffffffffffffffffffffffffffffffffff1673ffffffffffffffffffffffffffffffffffffffff168152602001908152602001600020600083815260200190815260200160002054905092915050565b600a60149054906101000a900460ff1615610b16576040517f08c379a0000000000000000000000000000000000000000000000000000000008152600401610b0d9061306a565b60405180910390fd5b600a60159054906101000a900460ff168015610b335750600e5442115b610b72576040517f08c379a0000000000000000000000000000000000000000000000000000000008152600401610b69906130d6565b60405180910390fd5b6000610b7e600d6119f7565b9050600c548110610bc4576040517f08c379a0000000000000000000000000000000000000000000000000000000008152600401610bbb90613168565b60405180910390fd5b600b54341015610c09576040517f08c379a0000000000000000000000000000000000000000000000000000000008152600401610c00906131d4565b60405180910390fd5b610c13600d611a05565b610c1d3382611a1b565b50565b610c2861167e565b6000610c32611143565b9050600047905060008273ffffffffffffffffffffffffffffffffffffffff1682604051610c5f90613225565b60006040518083038185875af1925050503d8060008114610c9c576040519150601f19603f3d011682016040523d82523d6000602084013e610ca1565b606091505b5050905080610ce5576040517f08c379a0000000000000000000000000000000000000000000000000000000008152600401610cdc90613286565b60405180910390fd5b505050565b610d05838383604051806020016040528060008152506112a9565b505050565b6000610d146109ae565b8210610d55576040517f08c379a0000000000000000000000000000000000000000000000000000000008152600401610d4c90613318565b60405180910390fd5b60088281548110610d6957610d68613338565b5b90600052602060002001549050919050565b600a60149054906101000a900460ff1615610dcb576040517f08c379a0000000000000000000000000000000000000000000000000000000008152600401610dc29061306a565b60405180910390fd5b600a60159054906101000a900460ff168015610de85750600e5442105b610e27576040517f08c379a0000000000000000000000000000000000000000000000000000000008152600401610e1e906133b3565b60405180910390fd5b601060009054906101000a900473ffffffffffffffffffffffffffffffffffffffff1673ffffffffffffffffffffffffffffffffffffffff166306c933d8336040518263ffffffff1660e01b8152600401610e8291906129b4565b602060405180830381865afa158015610e9f573d6000803e3d6000fd5b505050506040513d601f19601f82011682018060405250810190610ec391906133e8565b610f02576040517f08c379a0000000000000000000000000000000000000000000000000000000008152600401610ef990613461565b60405180910390fd5b6000610f0e600d6119f7565b9050600c548110610f54576040517f08c379a0000000000000000000000000000000000000000000000000000000008152600401610f4b90613168565b60405180910390fd5b600b54341015610f99576040517f08c379a0000000000000000000000000000000000000000000000000000000008152600401610f90906131d4565b60405180910390fd5b610fa3600d611a05565b610fad3382611a1b565b50565b600c5481565b6000806002600084815260200190815260200160002060009054906101000a900473ffffffffffffffffffffffffffffffffffffffff169050600073ffffffffffffffffffffffffffffffffffffffff168173ffffffffffffffffffffffffffffffffffffffff160361105e576040517f08c379a0000000000000000000000000000000000000000000000000000000008152600401611055906134cd565b60405180910390fd5b80915050919050565b6000611073600d6119f7565b905090565b60008073ffffffffffffffffffffffffffffffffffffffff168273ffffffffffffffffffffffffffffffffffffffff16036110e8576040517f08c379a00000000000000000000000000000000000000000000000000000000081526004016110df9061355f565b60405180910390fd5b600360008373ffffffffffffffffffffffffffffffffffffffff1673ffffffffffffffffffffffffffffffffffffffff168152602001908152602001600020549050919050565b61113761167e565b6111416000611a39565b565b6000600a60009054906101000a900473ffffffffffffffffffffffffffffffffffffffff16905090565b60606001805461117c90612da5565b80601f01602080910402602001604051908101604052809291908181526020018280546111a890612da5565b80156111f55780601f106111ca576101008083540402835291602001916111f5565b820191906000526020600020905b8154815290600101906020018083116111d857829003601f168201915b5050505050905090565b61120761167e565b600a60159054906101000a900460ff1615611257576040517f08c379a000000000000000000000000000000000000000000000000000000000815260040161124e906135cb565b60405180910390fd5b6001600a60156101000a81548160ff021916908315150217905550603c8161127f919061361a565b4261128a919061365c565b600e8190555050565b6112a561129e6115bd565b8383611aff565b5050565b6112ba6112b46115bd565b836116fc565b6112f9576040517f08c379a00000000000000000000000000000000000000000000000000000000081526004016112f090612f6c565b60405180910390fd5b61130584848484611c6b565b50505050565b606061131682611572565b6000611320611cc7565b90506000815111611340576040518060200160405280600081525061136b565b8061134a84611d59565b60405160200161135b9291906136cc565b6040516020818303038152906040525b915050919050565b600e5481565b6000600560008473ffffffffffffffffffffffffffffffffffffffff1673ffffffffffffffffffffffffffffffffffffffff16815260200190815260200160002060008373ffffffffffffffffffffffffffffffffffffffff1673ffffffffffffffffffffffffffffffffffffffff16815260200190815260200160002060009054906101000a900460ff16905092915050565b61141561167e565b600073ffffffffffffffffffffffffffffffffffffffff168173ffffffffffffffffffffffffffffffffffffffff1603611484576040517f08c379a000000000000000000000000000000000000000000000000000000000815260040161147b90613762565b60405180910390fd5b61148d81611a39565b50565b60007f80ac58cd000000000000000000000000000000000000000000000000000000007bffffffffffffffffffffffffffffffffffffffffffffffffffffffff1916827bffffffffffffffffffffffffffffffffffffffffffffffffffffffff1916148061155b57507f5b5e139f000000000000000000000000000000000000000000000000000000007bffffffffffffffffffffffffffffffffffffffffffffffffffffffff1916827bffffffffffffffffffffffffffffffffffffffffffffffffffffffff1916145b8061156b575061156a82611eb9565b5b9050919050565b61157b81611f23565b6115ba576040517f08c379a00000000000000000000000000000000000000000000000000000000081526004016115b1906134cd565b60405180910390fd5b50565b600033905090565b816004600083815260200190815260200160002060006101000a81548173ffffffffffffffffffffffffffffffffffffffff021916908373ffffffffffffffffffffffffffffffffffffffff160217905550808273ffffffffffffffffffffffffffffffffffffffff1661163883610fb6565b73ffffffffffffffffffffffffffffffffffffffff167f8c5be1e5ebec7d5bd14f71427d1e84f3dd0314c0f7b2291e5b200ac8c7c3b92560405160405180910390a45050565b6116866115bd565b73ffffffffffffffffffffffffffffffffffffffff166116a4611143565b73ffffffffffffffffffffffffffffffffffffffff16146116fa576040517f08c379a00000000000000000000000000000000000000000000000000000000081526004016116f1906137ce565b60405180910390fd5b565b60008061170883610fb6565b90508073ffffffffffffffffffffffffffffffffffffffff168473ffffffffffffffffffffffffffffffffffffffff16148061174a57506117498185611379565b5b8061178857508373ffffffffffffffffffffffffffffffffffffffff1661177084610819565b73ffffffffffffffffffffffffffffffffffffffff16145b91505092915050565b8273ffffffffffffffffffffffffffffffffffffffff166117b182610fb6565b73ffffffffffffffffffffffffffffffffffffffff1614611807576040517f08c379a00000000000000000000000000000000000000000000000000000000081526004016117fe90613860565b60405180910390fd5b600073ffffffffffffffffffffffffffffffffffffffff168273ffffffffffffffffffffffffffffffffffffffff1603611876576040517f08c379a000000000000000000000000000000000000000000000000000000000815260040161186d906138f2565b60405180910390fd5b611881838383611f8f565b61188c6000826115c5565b6001600360008573ffffffffffffffffffffffffffffffffffffffff1673ffffffffffffffffffffffffffffffffffffffff16815260200190815260200160002060008282546118dc9190613912565b925050819055506001600360008473ffffffffffffffffffffffffffffffffffffffff1673ffffffffffffffffffffffffffffffffffffffff1681526020019081526020016000206000828254611933919061365c565b92505081905550816002600083815260200190815260200160002060006101000a81548173ffffffffffffffffffffffffffffffffffffffff021916908373ffffffffffffffffffffffffffffffffffffffff160217905550808273ffffffffffffffffffffffffffffffffffffffff168473ffffffffffffffffffffffffffffffffffffffff167fddf252ad1be2c89b69c2b068fc378daa952ba7f163c4a11628f55a4df523b3ef60405160405180910390a46119f28383836120a1565b505050565b600081600001549050919050565b6001816000016000828254019250508190555050565b611a358282604051806020016040528060008152506120a6565b5050565b6000600a60009054906101000a900473ffffffffffffffffffffffffffffffffffffffff16905081600a60006101000a81548173ffffffffffffffffffffffffffffffffffffffff021916908373ffffffffffffffffffffffffffffffffffffffff1602179055508173ffffffffffffffffffffffffffffffffffffffff168173ffffffffffffffffffffffffffffffffffffffff167f8be0079c531659141344cd1fd0a4f28419497f9722a3daafe3b4186f6b6457e060405160405180910390a35050565b8173ffffffffffffffffffffffffffffffffffffffff168373ffffffffffffffffffffffffffffffffffffffff1603611b6d576040517f08c379a0000000000000000000000000000000000000000000000000000000008152600401611b6490613992565b60405180910390fd5b80600560008573ffffffffffffffffffffffffffffffffffffffff1673ffffffffffffffffffffffffffffffffffffffff16815260200190815260200160002060008473ffffffffffffffffffffffffffffffffffffffff1673ffffffffffffffffffffffffffffffffffffffff16815260200190815260200160002060006101000a81548160ff0219169083151502179055508173ffffffffffffffffffffffffffffffffffffffff168373ffffffffffffffffffffffffffffffffffffffff167f17307eab39ab6107e8899845ad3d59bd9653f200f220920489ca2b5937696c3183604051611c5e9190612843565b60405180910390a3505050565b611c76848484611791565b611c8284848484612101565b611cc1576040517f08c379a0000000000000000000000000000000000000000000000000000000008152600401611cb890613a24565b60405180910390fd5b50505050565b6060600f8054611cd690612da5565b80601f0160208091040260200160405190810160405280929190818152602001828054611d0290612da5565b8015611d4f5780601f10611d2457610100808354040283529160200191611d4f565b820191906000526020600020905b815481529060010190602001808311611d3257829003601f168201915b5050505050905090565b606060008203611da0576040518060400160405280600181526020017f30000000000000000000000000000000000000000000000000000000000000008152509050611eb4565b600082905060005b60008214611dd2578080611dbb90613a44565b915050600a82611dcb9190613abb565b9150611da8565b60008167ffffffffffffffff811115611dee57611ded612b88565b5b6040519080825280601f01601f191660200182016040528015611e205781602001600182028036833780820191505090505b5090505b60008514611ead57600182611e399190613912565b9150600a85611e489190613aec565b6030611e54919061365c565b60f81b818381518110611e6a57611e69613338565b5b60200101907effffffffffffffffffffffffffffffffffffffffffffffffffffffffffffff1916908160001a905350600a85611ea69190613abb565b9450611e24565b8093505050505b919050565b60007f01ffc9a7000000000000000000000000000000000000000000000000000000007bffffffffffffffffffffffffffffffffffffffffffffffffffffffff1916827bffffffffffffffffffffffffffffffffffffffffffffffffffffffff1916149050919050565b60008073ffffffffffffffffffffffffffffffffffffffff166002600084815260200190815260200160002060009054906101000a900473ffffffffffffffffffffffffffffffffffffffff1673ffffffffffffffffffffffffffffffffffffffff1614159050919050565b611f9a838383612288565b600073ffffffffffffffffffffffffffffffffffffffff168373ffffffffffffffffffffffffffffffffffffffff1603611fdc57611fd78161228d565b61201b565b8173ffffffffffffffffffffffffffffffffffffffff168373ffffffffffffffffffffffffffffffffffffffff161461201a5761201983826122d6565b5b5b600073ffffffffffffffffffffffffffffffffffffffff168273ffffffffffffffffffffffffffffffffffffffff160361205d5761205881612443565b61209c565b8273ffffffffffffffffffffffffffffffffffffffff168273ffffffffffffffffffffffffffffffffffffffff161461209b5761209a8282612514565b5b5b505050565b505050565b6120b08383612593565b6120bd6000848484612101565b6120fc576040517f08c379a00000000000000000000000000000000000000000000000000000000081526004016120f390613a24565b60405180910390fd5b505050565b60006121228473ffffffffffffffffffffffffffffffffffffffff1661276c565b1561227b578373ffffffffffffffffffffffffffffffffffffffff1663150b7a0261214b6115bd565b8786866040518563ffffffff1660e01b815260040161216d9493929190613b72565b6020604051808303816000875af19250505080156121a957506040513d601f19601f820116820180604052508101906121a69190613bd3565b60015b61222b573d80600081146121d9576040519150601f19603f3d011682016040523d82523d6000602084013e6121de565b606091505b506000815103612223576040517f08c379a000000000000000000000000000000000000000000000000000000000815260040161221a90613a24565b60405180910390fd5b805181602001fd5b63150b7a0260e01b7bffffffffffffffffffffffffffffffffffffffffffffffffffffffff1916817bffffffffffffffffffffffffffffffffffffffffffffffffffffffff191614915050612280565b600190505b949350505050565b505050565b6008805490506009600083815260200190815260200160002081905550600881908060018154018082558091505060019003906000526020600020016000909190919091505550565b600060016122e384611078565b6122ed9190613912565b90506000600760008481526020019081526020016000205490508181146123d2576000600660008673ffffffffffffffffffffffffffffffffffffffff1673ffffffffffffffffffffffffffffffffffffffff168152602001908152602001600020600084815260200190815260200160002054905080600660008773ffffffffffffffffffffffffffffffffffffffff1673ffffffffffffffffffffffffffffffffffffffff168152602001908152602001600020600084815260200190815260200160002081905550816007600083815260200190815260200160002081905550505b6007600084815260200190815260200160002060009055600660008573ffffffffffffffffffffffffffffffffffffffff1673ffffffffffffffffffffffffffffffffffffffff16815260200190815260200160002060008381526020019081526020016000206000905550505050565b600060016008805490506124579190613912565b905060006009600084815260200190815260200160002054905060006008838154811061248757612486613338565b5b9060005260206000200154905080600883815481106124a9576124a8613338565b5b9060005260206000200181905550816009600083815260200190815260200160002081905550600960008581526020019081526020016000206000905560088054806124f8576124f7613c00565b5b6001900381819060005260206000200160009055905550505050565b600061251f83611078565b905081600660008573ffffffffffffffffffffffffffffffffffffffff1673ffffffffffffffffffffffffffffffffffffffff168152602001908152602001600020600083815260200190815260200160002081905550806007600084815260200190815260200160002081905550505050565b600073ffffffffffffffffffffffffffffffffffffffff168273ffffffffffffffffffffffffffffffffffffffff1603612602576040517f08c379a00000000000000000000000000000000000000000000000000000000081526004016125f990613c7b565b60405180910390fd5b61260b81611f23565b1561264b576040517f08c379a000000000000000000000000000000000000000000000000000000000815260040161264290613ce7565b60405180910390fd5b61265760008383611f8f565b6001600360008473ffffffffffffffffffffffffffffffffffffffff1673ffffffffffffffffffffffffffffffffffffffff16815260200190815260200160002060008282546126a7919061365c565b92505081905550816002600083815260200190815260200160002060006101000a81548173ffffffffffffffffffffffffffffffffffffffff021916908373ffffffffffffffffffffffffffffffffffffffff160217905550808273ffffffffffffffffffffffffffffffffffffffff16600073ffffffffffffffffffffffffffffffffffffffff167fddf252ad1be2c89b69c2b068fc378daa952ba7f163c4a11628f55a4df523b3ef60405160405180910390a4612768600083836120a1565b5050565b6000808273ffffffffffffffffffffffffffffffffffffffff163b119050919050565b6000604051905090565b600080fd5b600080fd5b60007fffffffff0000000000000000000000000000000000000000000000000000000082169050919050565b6127d8816127a3565b81146127e357600080fd5b50565b6000813590506127f5816127cf565b92915050565b60006020828403121561281157612810612799565b5b600061281f848285016127e6565b91505092915050565b60008115159050919050565b61283d81612828565b82525050565b60006020820190506128586000830184612834565b92915050565b600081519050919050565b600082825260208201905092915050565b60005b8381101561289857808201518184015260208101905061287d565b60008484015250505050565b6000601f19601f8301169050919050565b60006128c08261285e565b6128ca8185612869565b93506128da81856020860161287a565b6128e3816128a4565b840191505092915050565b6000602082019050818103600083015261290881846128b5565b905092915050565b6000819050919050565b61292381612910565b811461292e57600080fd5b50565b6000813590506129408161291a565b92915050565b60006020828403121561295c5761295b612799565b5b600061296a84828501612931565b91505092915050565b600073ffffffffffffffffffffffffffffffffffffffff82169050919050565b600061299e82612973565b9050919050565b6129ae81612993565b82525050565b60006020820190506129c960008301846129a5565b92915050565b6129d881612993565b81146129e357600080fd5b50565b6000813590506129f5816129cf565b92915050565b60008060408385031215612a1257612a11612799565b5b6000612a20858286016129e6565b9250506020612a3185828601612931565b9150509250929050565b612a4481612828565b8114612a4f57600080fd5b50565b600081359050612a6181612a3b565b92915050565b600060208284031215612a7d57612a7c612799565b5b6000612a8b84828501612a52565b91505092915050565b612a9d81612910565b82525050565b6000602082019050612ab86000830184612a94565b92915050565b600080600060608486031215612ad757612ad6612799565b5b6000612ae5868287016129e6565b9350506020612af6868287016129e6565b9250506040612b0786828701612931565b9150509250925092565b600060208284031215612b2757612b26612799565b5b6000612b35848285016129e6565b91505092915050565b60008060408385031215612b5557612b54612799565b5b6000612b63858286016129e6565b9250506020612b7485828601612a52565b9150509250929050565b600080fd5b600080fd5b7f4e487b7100000000000000000000000000000000000000000000000000000000600052604160045260246000fd5b612bc0826128a4565b810181811067ffffffffffffffff82111715612bdf57612bde612b88565b5b80604052505050565b6000612bf261278f565b9050612bfe8282612bb7565b919050565b600067ffffffffffffffff821115612c1e57612c1d612b88565b5b612c27826128a4565b9050602081019050919050565b82818337600083830152505050565b6000612c56612c5184612c03565b612be8565b905082815260208101848484011115612c7257612c71612b83565b5b612c7d848285612c34565b509392505050565b600082601f830112612c9a57612c99612b7e565b5b8135612caa848260208601612c43565b91505092915050565b60008060008060808587031215612ccd57612ccc612799565b5b6000612cdb878288016129e6565b9450506020612cec878288016129e6565b9350506040612cfd87828801612931565b925050606085013567ffffffffffffffff811115612d1e57612d1d61279e565b5b612d2a87828801612c85565b91505092959194509250565b60008060408385031215612d4d57612d4c612799565b5b6000612d5b858286016129e6565b9250506020612d6c858286016129e6565b9150509250929050565b7f4e487b7100000000000000000000000000000000000000000000000000000000600052602260045260246000fd5b60006002820490506001821680612dbd57607f821691505b602082108103612dd057612dcf612d76565b5b50919050565b7f4552433732313a20617070726f76616c20746f2063757272656e74206f776e6560008201527f7200000000000000000000000000000000000000000000000000000000000000602082015250565b6000612e32602183612869565b9150612e3d82612dd6565b604082019050919050565b60006020820190508181036000830152612e6181612e25565b9050919050565b7f4552433732313a20617070726f76652063616c6c6572206973206e6f7420746f60008201527f6b656e206f776e6572206e6f7220617070726f76656420666f7220616c6c0000602082015250565b6000612ec4603e83612869565b9150612ecf82612e68565b604082019050919050565b60006020820190508181036000830152612ef381612eb7565b9050919050565b7f4552433732313a2063616c6c6572206973206e6f7420746f6b656e206f776e6560008201527f72206e6f7220617070726f766564000000000000000000000000000000000000602082015250565b6000612f56602e83612869565b9150612f6182612efa565b604082019050919050565b60006020820190508181036000830152612f8581612f49565b9050919050565b7f455243373231456e756d657261626c653a206f776e657220696e646578206f7560008201527f74206f6620626f756e6473000000000000000000000000000000000000000000602082015250565b6000612fe8602b83612869565b9150612ff382612f8c565b604082019050919050565b6000602082019050818103600083015261301781612fdb565b9050919050565b7f436f6e74726163742063757272656e746c792070617573656400000000000000600082015250565b6000613054601983612869565b915061305f8261301e565b602082019050919050565b6000602082019050818103600083015261308381613047565b9050919050565b7f50726573616c6520686173206e6f7420656e6465642079657400000000000000600082015250565b60006130c0601983612869565b91506130cb8261308a565b602082019050919050565b600060208201905081810360008301526130ef816130b3565b9050919050565b7f4578636565646564206d6178696d756d2043727970746f20446576732073757060008201527f706c790000000000000000000000000000000000000000000000000000000000602082015250565b6000613152602383612869565b915061315d826130f6565b604082019050919050565b6000602082019050818103600083015261318181613145565b9050919050565b7f45746865722073656e74206973206e6f7420636f727265637400000000000000600082015250565b60006131be601983612869565b91506131c982613188565b602082019050919050565b600060208201905081810360008301526131ed816131b1565b9050919050565b600081905092915050565b50565b600061320f6000836131f4565b915061321a826131ff565b600082019050919050565b600061323082613202565b9150819050919050565b7f4661696c656420746f2073656e64204574686572000000000000000000000000600082015250565b6000613270601483612869565b915061327b8261323a565b602082019050919050565b6000602082019050818103600083015261329f81613263565b9050919050565b7f455243373231456e756d657261626c653a20676c6f62616c20696e646578206f60008201527f7574206f6620626f756e64730000000000000000000000000000000000000000602082015250565b6000613302602c83612869565b915061330d826132a6565b604082019050919050565b60006020820190508181036000830152613331816132f5565b9050919050565b7f4e487b7100000000000000000000000000000000000000000000000000000000600052603260045260246000fd5b7f50726573616c65206973206e6f742072756e6e696e6700000000000000000000600082015250565b600061339d601683612869565b91506133a882613367565b602082019050919050565b600060208201905081810360008301526133cc81613390565b9050919050565b6000815190506133e281612a3b565b92915050565b6000602082840312156133fe576133fd612799565b5b600061340c848285016133d3565b91505092915050565b7f596f7520617265206e6f742077686974656c6973746564000000000000000000600082015250565b600061344b601783612869565b915061345682613415565b602082019050919050565b6000602082019050818103600083015261347a8161343e565b9050919050565b7f4552433732313a20696e76616c696420746f6b656e2049440000000000000000600082015250565b60006134b7601883612869565b91506134c282613481565b602082019050919050565b600060208201905081810360008301526134e6816134aa565b9050919050565b7f4552433732313a2061646472657373207a65726f206973206e6f74206120766160008201527f6c6964206f776e65720000000000000000000000000000000000000000000000602082015250565b6000613549602983612869565b9150613554826134ed565b604082019050919050565b600060208201905081810360008301526135788161353c565b9050919050565b7f70726573616c6520686173207374617274656421000000000000000000000000600082015250565b60006135b5601483612869565b91506135c08261357f565b602082019050919050565b600060208201905081810360008301526135e4816135a8565b9050919050565b7f4e487b7100000000000000000000000000000000000000000000000000000000600052601160045260246000fd5b600061362582612910565b915061363083612910565b925082820261363e81612910565b91508282048414831517613655576136546135eb565b5b5092915050565b600061366782612910565b915061367283612910565b925082820190508082111561368a576136896135eb565b5b92915050565b600081905092915050565b60006136a68261285e565b6136b08185613690565b93506136c081856020860161287a565b80840191505092915050565b60006136d8828561369b565b91506136e4828461369b565b91508190509392505050565b7f4f776e61626c653a206e6577206f776e657220697320746865207a65726f206160008201527f6464726573730000000000000000000000000000000000000000000000000000602082015250565b600061374c602683612869565b9150613757826136f0565b604082019050919050565b6000602082019050818103600083015261377b8161373f565b9050919050565b7f4f776e61626c653a2063616c6c6572206973206e6f7420746865206f776e6572600082015250565b60006137b8602083612869565b91506137c382613782565b602082019050919050565b600060208201905081810360008301526137e7816137ab565b9050919050565b7f4552433732313a207472616e736665722066726f6d20696e636f72726563742060008201527f6f776e6572000000000000000000000000000000000000000000000000000000602082015250565b600061384a602583612869565b9150613855826137ee565b604082019050919050565b600060208201905081810360008301526138798161383d565b9050919050565b7f4552433732313a207472616e7366657220746f20746865207a65726f2061646460008201527f7265737300000000000000000000000000000000000000000000000000000000602082015250565b60006138dc602483612869565b91506138e782613880565b604082019050919050565b6000602082019050818103600083015261390b816138cf565b9050919050565b600061391d82612910565b915061392883612910565b92508282039050818111156139405761393f6135eb565b5b92915050565b7f4552433732313a20617070726f766520746f2063616c6c657200000000000000600082015250565b600061397c601983612869565b915061398782613946565b602082019050919050565b600060208201905081810360008301526139ab8161396f565b9050919050565b7f4552433732313a207472616e7366657220746f206e6f6e20455243373231526560008201527f63656976657220696d706c656d656e7465720000000000000000000000000000602082015250565b6000613a0e603283612869565b9150613a19826139b2565b604082019050919050565b60006020820190508181036000830152613a3d81613a01565b9050919050565b6000613a4f82612910565b91507fffffffffffffffffffffffffffffffffffffffffffffffffffffffffffffffff8203613a8157613a806135eb565b5b600182019050919050565b7f4e487b7100000000000000000000000000000000000000000000000000000000600052601260045260246000fd5b6000613ac682612910565b9150613ad183612910565b925082613ae157613ae0613a8c565b5b828204905092915050565b6000613af782612910565b9150613b0283612910565b925082613b1257613b11613a8c565b5b828206905092915050565b600081519050919050565b600082825260208201905092915050565b6000613b4482613b1d565b613b4e8185613b28565b9350613b5e81856020860161287a565b613b67816128a4565b840191505092915050565b6000608082019050613b8760008301876129a5565b613b9460208301866129a5565b613ba16040830185612a94565b8181036060830152613bb38184613b39565b905095945050505050565b600081519050613bcd816127cf565b92915050565b600060208284031215613be957613be8612799565b5b6000613bf784828501613bbe565b91505092915050565b7f4e487b7100000000000000000000000000000000000000000000000000000000600052603160045260246000fd5b7f4552433732313a206d696e7420746f20746865207a65726f2061646472657373600082015250565b6000613c65602083612869565b9150613c7082613c2f565b602082019050919050565b60006020820190508181036000830152613c9481613c58565b9050919050565b7f4552433732313a20746f6b656e20616c7265616479206d696e74656400000000600082015250565b6000613cd1601c83612869565b9150613cdc82613c9b565b602082019050919050565b60006020820190508181036000830152613d0081613cc4565b905091905056fea26469706673582212205ff3aeeac06f47a9b875f7988f03bd19d1ff37651628309f26dd78822c89b8a264736f6c63430008110033",
  "devdoc": {
    "kind": "dev",
    "methods": {
      "approve(address,uint256)": {
        "details": "See {IERC721-approve}."
      },
      "balanceOf(address)": {
        "details": "See {IERC721-balanceOf}."
      },
      "getApproved(uint256)": {
        "details": "See {IERC721-getApproved}."
      },
      "isApprovedForAll(address,address)": {
        "details": "See {IERC721-isApprovedForAll}."
      },
      "name()": {
        "details": "See {IERC721Metadata-name}."
      },
      "owner()": {
        "details": "Returns the address of the current owner."
      },
      "ownerOf(uint256)": {
        "details": "See {IERC721-ownerOf}."
      },
      "renounceOwnership()": {
        "details": "Leaves the contract without owner. It will not be possible to call `onlyOwner` functions anymore. Can only be called by the current owner. NOTE: Renouncing ownership will leave the contract without an owner, thereby removing any functionality that is only available to the owner."
      },
      "safeTransferFrom(address,address,uint256)": {
        "details": "See {IERC721-safeTransferFrom}."
      },
      "safeTransferFrom(address,address,uint256,bytes)": {
        "details": "See {IERC721-safeTransferFrom}."
      },
      "setApprovalForAll(address,bool)": {
        "details": "See {IERC721-setApprovalForAll}."
      },
      "supportsInterface(bytes4)": {
        "details": "See {IERC165-supportsInterface}."
      },
      "symbol()": {
        "details": "See {IERC721Metadata-symbol}."
      },
      "tokenByIndex(uint256)": {
        "details": "See {IERC721Enumerable-tokenByIndex}."
      },
      "tokenOfOwnerByIndex(address,uint256)": {
        "details": "See {IERC721Enumerable-tokenOfOwnerByIndex}."
      },
      "tokenURI(uint256)": {
        "details": "See {IERC721Metadata-tokenURI}."
      },
      "totalSupply()": {
        "details": "See {IERC721Enumerable-totalSupply}."
      },
      "transferFrom(address,address,uint256)": {
        "details": "See {IERC721-transferFrom}."
      },
      "transferOwnership(address)": {
        "details": "Transfers ownership of the contract to a new account (`newOwner`). Can only be called by the current owner."
      }
    },
    "version": 1
  },
  "userdoc": {
    "kind": "user",
    "methods": {},
    "version": 1
  },
  "storageLayout": {
    "storage": [
      {
        "astId": 827,
        "contract": "contracts/CryptoDevs.sol:CryptoDevs",
        "label": "_name",
        "offset": 0,
        "slot": "0",
        "type": "t_string_storage"
      },
      {
        "astId": 829,
        "contract": "contracts/CryptoDevs.sol:CryptoDevs",
        "label": "_symbol",
        "offset": 0,
        "slot": "1",
        "type": "t_string_storage"
      },
      {
        "astId": 833,
        "contract": "contracts/CryptoDevs.sol:CryptoDevs",
        "label": "_owners",
        "offset": 0,
        "slot": "2",
        "type": "t_mapping(t_uint256,t_address)"
      },
      {
        "astId": 837,
        "contract": "contracts/CryptoDevs.sol:CryptoDevs",
        "label": "_balances",
        "offset": 0,
        "slot": "3",
        "type": "t_mapping(t_address,t_uint256)"
      },
      {
        "astId": 841,
        "contract": "contracts/CryptoDevs.sol:CryptoDevs",
        "label": "_tokenApprovals",
        "offset": 0,
        "slot": "4",
        "type": "t_mapping(t_uint256,t_address)"
      },
      {
        "astId": 847,
        "contract": "contracts/CryptoDevs.sol:CryptoDevs",
        "label": "_operatorApprovals",
        "offset": 0,
        "slot": "5",
        "type": "t_mapping(t_address,t_mapping(t_address,t_bool))"
      },
      {
        "astId": 1817,
        "contract": "contracts/CryptoDevs.sol:CryptoDevs",
        "label": "_ownedTokens",
        "offset": 0,
        "slot": "6",
        "type": "t_mapping(t_address,t_mapping(t_uint256,t_uint256))"
      },
      {
        "astId": 1821,
        "contract": "contracts/CryptoDevs.sol:CryptoDevs",
        "label": "_ownedTokensIndex",
        "offset": 0,
        "slot": "7",
        "type": "t_mapping(t_uint256,t_uint256)"
      },
      {
        "astId": 1824,
        "contract": "contracts/CryptoDevs.sol:CryptoDevs",
        "label": "_allTokens",
        "offset": 0,
        "slot": "8",
        "type": "t_array(t_uint256)dyn_storage"
      },
      {
        "astId": 1828,
        "contract": "contracts/CryptoDevs.sol:CryptoDevs",
        "label": "_allTokensIndex",
        "offset": 0,
        "slot": "9",
        "type": "t_mapping(t_uint256,t_uint256)"
      },
      {
        "astId": 7,
        "contract": "contracts/CryptoDevs.sol:CryptoDevs",
        "label": "_owner",
        "offset": 0,
        "slot": "10",
        "type": "t_address"
      },
      {
        "astId": 3078,
        "contract": "contracts/CryptoDevs.sol:CryptoDevs",
        "label": "_paused",
        "offset": 20,
        "slot": "10",
        "type": "t_bool"
      },
      {
        "astId": 3080,
        "contract": "contracts/CryptoDevs.sol:CryptoDevs",
        "label": "presaleStarted",
        "offset": 21,
        "slot": "10",
        "type": "t_bool"
      },
      {
        "astId": 3083,
        "contract": "contracts/CryptoDevs.sol:CryptoDevs",
        "label": "_price",
        "offset": 0,
        "slot": "11",
        "type": "t_uint256"
      },
      {
        "astId": 3086,
        "contract": "contracts/CryptoDevs.sol:CryptoDevs",
        "label": "maxTokenIds",
        "offset": 0,
        "slot": "12",
        "type": "t_uint256"
      },
      {
        "astId": 3089,
        "contract": "contracts/CryptoDevs.sol:CryptoDevs",
        "label": "tokenIds",
        "offset": 0,
        "slot": "13",
        "type": "t_struct(Counter)2521_storage"
      },
      {
        "astId": 3091,
        "contract": "contracts/CryptoDevs.sol:CryptoDevs",
        "label": "presaleEnded",
        "offset": 0,
        "slot": "14",
        "type": "t_uint256"
      },
      {
        "astId": 3093,
        "contract": "contracts/CryptoDevs.sol:CryptoDevs",
        "label": "_baseTokenURI",
        "offset": 0,
        "slot": "15",
        "type": "t_string_storage"
      },
      {
        "astId": 3096,
        "contract": "contracts/CryptoDevs.sol:CryptoDevs",
        "label": "whitelist",
        "offset": 0,
        "slot": "16",
        "type": "t_contract(IWhiteList)3362"
      }
    ],
    "types": {
      "t_address": {
        "encoding": "inplace",
        "label": "address",
        "numberOfBytes": "20"
      },
      "t_array(t_uint256)dyn_storage": {
        "base": "t_uint256",
        "encoding": "dynamic_array",
        "label": "uint256[]",
        "numberOfBytes": "32"
      },
      "t_bool": {
        "encoding": "inplace",
        "label": "bool",
        "numberOfBytes": "1"
      },
      "t_contract(IWhiteList)3362": {
        "encoding": "inplace",
        "label": "contract IWhiteList",
        "numberOfBytes": "20"
      },
      "t_mapping(t_address,t_bool)": {
        "encoding": "mapping",
        "key": "t_address",
        "label": "mapping(address => bool)",
        "numberOfBytes": "32",
        "value": "t_bool"
      },
      "t_mapping(t_address,t_mapping(t_address,t_bool))": {
        "encoding": "mapping",
        "key": "t_address",
        "label": "mapping(address => mapping(address => bool))",
        "numberOfBytes": "32",
        "value": "t_mapping(t_address,t_bool)"
      },
      "t_mapping(t_address,t_mapping(t_uint256,t_uint256))": {
        "encoding": "mapping",
        "key": "t_address",
        "label": "mapping(address => mapping(uint256 => uint256))",
        "numberOfBytes": "32",
        "value": "t_mapping(t_uint256,t_uint256)"
      },
      "t_mapping(t_address,t_uint256)": {
        "encoding": "mapping",
        "key": "t_address",
        "label": "mapping(address => uint256)",
        "numberOfBytes": "32",
        "value": "t_uint256"
      },
      "t_mapping(t_uint256,t_address)": {
        "encoding": "mapping",
        "key": "t_uint256",
        "label": "mapping(uint256 => address)",
        "numberOfBytes": "32",
        "value": "t_address"
      },
      "t_mapping(t_uint256,t_uint256)": {
        "encoding": "mapping",
        "key": "t_uint256",
        "label": "mapping(uint256 => uint256)",
        "numberOfBytes": "32",
        "value": "t_uint256"
      },
      "t_string_storage": {
        "encoding": "bytes",
        "label": "string",
        "numberOfBytes": "32"
      },
      "t_struct(Counter)2521_storage": {
        "encoding": "inplace",
        "label": "struct Counters.Counter",
        "members": [
          {
            "astId": 2520,
            "contract": "contracts/CryptoDevs.sol:CryptoDevs",
            "label": "_value",
            "offset": 0,
            "slot": "0",
            "type": "t_uint256"
          }
        ],
        "numberOfBytes": "32"
      },
      "t_uint256": {
        "encoding": "inplace",
        "label": "uint256",
        "numberOfBytes": "32"
      }
    }
  }
}