{
  "address": "0xC171137B6c788C5eF95c4c4982b083F659aB6Ba9",
  "abi": [
    {
      "inputs": [
        {
          "internalType": "string",
          "name": "_tokenbaseURI",
          "type": "string"
        },
        {
          "internalType": "address",
          "name": "_whitelistContract",
          "type": "address"
        }
      ],
      "stateMutability": "nonpayable",
      "type": "constructor"
    },
    {
      "anonymous": false,
      "inputs": [
        {
          "indexed": true,
          "internalType": "address",
          "name": "owner",
          "type": "address"
        },
        {
          "indexed": true,
          "internalType": "address",
          "name": "approved",
          "type": "address"
        },
        {
          "indexed": true,
          "internalType": "uint256",
          "name": "tokenId",
          "type": "uint256"
        }
      ],
      "name": "Approval",
      "type": "event"
    },
    {
      "anonymous": false,
      "inputs": [
        {
          "indexed": true,
          "internalType": "address",
          "name": "owner",
          "type": "address"
        },
        {
          "indexed": true,
          "internalType": "address",
          "name": "operator",
          "type": "address"
        },
        {
          "indexed": false,
          "internalType": "bool",
          "name": "approved",
          "type": "bool"
        }
      ],
      "name": "ApprovalForAll",
      "type": "event"
    },
    {
      "anonymous": false,
      "inputs": [
        {
          "indexed": true,
          "internalType": "address",
          "name": "previousOwner",
          "type": "address"
        },
        {
          "indexed": true,
          "internalType": "address",
          "name": "newOwner",
          "type": "address"
        }
      ],
      "name": "OwnershipTransferred",
      "type": "event"
    },
    {
      "anonymous": false,
      "inputs": [
        {
          "indexed": true,
          "internalType": "address",
          "name": "from",
          "type": "address"
        },
        {
          "indexed": true,
          "internalType": "address",
          "name": "to",
          "type": "address"
        },
        {
          "indexed": true,
          "internalType": "uint256",
          "name": "tokenId",
          "type": "uint256"
        }
      ],
      "name": "Transfer",
      "type": "event"
    },
    {
      "stateMutability": "payable",
      "type": "fallback"
    },
    {
      "inputs": [],
      "name": "Mint",
      "outputs": [],
      "stateMutability": "payable",
      "type": "function"
    },
    {
      "inputs": [],
      "name": "_paused",
      "outputs": [
        {
          "internalType": "bool",
          "name": "",
          "type": "bool"
        }
      ],
      "stateMutability": "view",
      "type": "function"
    },
    {
      "inputs": [],
      "name": "_price",
      "outputs": [
        {
          "internalType": "uint256",
          "name": "",
          "type": "uint256"
        }
      ],
      "stateMutability": "view",
      "type": "function"
    },
    {
      "inputs": [
        {
          "internalType": "address",
          "name": "to",
          "type": "address"
        },
        {
          "internalType": "uint256",
          "name": "tokenId",
          "type": "uint256"
        }
      ],
      "name": "approve",
      "outputs": [],
      "stateMutability": "nonpayable",
      "type": "function"
    },
    {
      "inputs": [
        {
          "internalType": "address",
          "name": "owner",
          "type": "address"
        }
      ],
      "name": "balanceOf",
      "outputs": [
        {
          "internalType": "uint256",
          "name": "",
          "type": "uint256"
        }
      ],
      "stateMutability": "view",
      "type": "function"
    },
    {
      "inputs": [
        {
          "internalType": "uint256",
          "name": "tokenId",
          "type": "uint256"
        }
      ],
      "name": "getApproved",
      "outputs": [
        {
          "internalType": "address",
          "name": "",
          "type": "address"
        }
      ],
      "stateMutability": "view",
      "type": "function"
    },
    {
      "inputs": [],
      "name": "getTokenIds",
      "outputs": [
        {
          "internalType": "uint256",
          "name": "",
          "type": "uint256"
        }
      ],
      "stateMutability": "view",
      "type": "function"
    },
    {
      "inputs": [
        {
          "internalType": "address",
          "name": "owner",
          "type": "address"
        },
        {
          "internalType": "address",
          "name": "operator",
          "type": "address"
        }
      ],
      "name": "isApprovedForAll",
      "outputs": [
        {
          "internalType": "bool",
          "name": "",
          "type": "bool"
        }
      ],
      "stateMutability": "view",
      "type": "function"
    },
    {
      "inputs": [],
      "name": "maxTokenIds",
      "outputs": [
        {
          "internalType": "uint256",
          "name": "",
          "type": "uint256"
        }
      ],
      "stateMutability": "view",
      "type": "function"
    },
    {
      "inputs": [],
      "name": "name",
      "outputs": [
        {
          "internalType": "string",
          "name": "",
          "type": "string"
        }
      ],
      "stateMutability": "view",
      "type": "function"
    },
    {
      "inputs": [],
      "name": "owner",
      "outputs": [
        {
          "internalType": "address",
          "name": "",
          "type": "address"
        }
      ],
      "stateMutability": "view",
      "type": "function"
    },
    {
      "inputs": [
        {
          "internalType": "uint256",
          "name": "tokenId",
          "type": "uint256"
        }
      ],
      "name": "ownerOf",
      "outputs": [
        {
          "internalType": "address",
          "name": "",
          "type": "address"
        }
      ],
      "stateMutability": "view",
      "type": "function"
    },
    {
      "inputs": [],
      "name": "presaleEnded",
      "outputs": [
        {
          "internalType": "uint256",
          "name": "",
          "type": "uint256"
        }
      ],
      "stateMutability": "view",
      "type": "function"
    },
    {
      "inputs": [],
      "name": "presaleMint",
      "outputs": [],
      "stateMutability": "payable",
      "type": "function"
    },
    {
      "inputs": [],
      "name": "presaleStarted",
      "outputs": [
        {
          "internalType": "bool",
          "name": "",
          "type": "bool"
        }
      ],
      "stateMutability": "view",
      "type": "function"
    },
    {
      "inputs": [],
      "name": "renounceOwnership",
      "outputs": [],
      "stateMutability": "nonpayable",
      "type": "function"
    },
    {
      "inputs": [
        {
          "internalType": "address",
          "name": "from",
          "type": "address"
        },
        {
          "internalType": "address",
          "name": "to",
          "type": "address"
        },
        {
          "internalType": "uint256",
          "name": "tokenId",
          "type": "uint256"
        }
      ],
      "name": "safeTransferFrom",
      "outputs": [],
      "stateMutability": "nonpayable",
      "type": "function"
    },
    {
      "inputs": [
        {
          "internalType": "address",
          "name": "from",
          "type": "address"
        },
        {
          "internalType": "address",
          "name": "to",
          "type": "address"
        },
        {
          "internalType": "uint256",
          "name": "tokenId",
          "type": "uint256"
        },
        {
          "internalType": "bytes",
          "name": "data",
          "type": "bytes"
        }
      ],
      "name": "safeTransferFrom",
      "outputs": [],
      "stateMutability": "nonpayable",
      "type": "function"
    },
    {
      "inputs": [
        {
          "internalType": "address",
          "name": "operator",
          "type": "address"
        },
        {
          "internalType": "bool",
          "name": "approved",
          "type": "bool"
        }
      ],
      "name": "setApprovalForAll",
      "outputs": [],
      "stateMutability": "nonpayable",
      "type": "function"
    },
    {
      "inputs": [
        {
          "internalType": "bool",
          "name": "val",
          "type": "bool"
        }
      ],
      "name": "setPaused",
      "outputs": [],
      "stateMutability": "nonpayable",
      "type": "function"
    },
    {
      "inputs": [
        {
          "internalType": "uint256",
          "name": "_time",
          "type": "uint256"
        }
      ],
      "name": "startPresale",
      "outputs": [],
      "stateMutability": "nonpayable",
      "type": "function"
    },
    {
      "inputs": [
        {
          "internalType": "bytes4",
          "name": "interfaceId",
          "type": "bytes4"
        }
      ],
      "name": "supportsInterface",
      "outputs": [
        {
          "internalType": "bool",
          "name": "",
          "type": "bool"
        }
      ],
      "stateMutability": "view",
      "type": "function"
    },
    {
      "inputs": [],
      "name": "symbol",
      "outputs": [
        {
          "internalType": "string",
          "name": "",
          "type": "string"
        }
      ],
      "stateMutability": "view",
      "type": "function"
    },
    {
      "inputs": [
        {
          "internalType": "uint256",
          "name": "index",
          "type": "uint256"
        }
      ],
      "name": "tokenByIndex",
      "outputs": [
        {
          "internalType": "uint256",
          "name": "",
          "type": "uint256"
        }
      ],
      "stateMutability": "view",
      "type": "function"
    },
    {
      "inputs": [
        {
          "internalType": "address",
          "name": "owner",
          "type": "address"
        },
        {
          "internalType": "uint256",
          "name": "index",
          "type": "uint256"
        }
      ],
      "name": "tokenOfOwnerByIndex",
      "outputs": [
        {
          "internalType": "uint256",
          "name": "",
          "type": "uint256"
        }
      ],
      "stateMutability": "view",
      "type": "function"
    },
    {
      "inputs": [
        {
          "internalType": "uint256",
          "name": "tokenId",
          "type": "uint256"
        }
      ],
      "name": "tokenURI",
      "outputs": [
        {
          "internalType": "string",
          "name": "",
          "type": "string"
        }
      ],
      "stateMutability": "view",
      "type": "function"
    },
    {
      "inputs": [],
      "name": "totalSupply",
      "outputs": [
        {
          "internalType": "uint256",
          "name": "",
          "type": "uint256"
        }
      ],
      "stateMutability": "view",
      "type": "function"
    },
    {
      "inputs": [
        {
          "internalType": "address",
          "name": "from",
          "type": "address"
        },
        {
          "internalType": "address",
          "name": "to",
          "type": "address"
        },
        {
          "internalType": "uint256",
          "name": "tokenId",
          "type": "uint256"
        }
      ],
      "name": "transferFrom",
      "outputs": [],
      "stateMutability": "nonpayable",
      "type": "function"
    },
    {
      "inputs": [
        {
          "internalType": "address",
          "name": "newOwner",
          "type": "address"
        }
      ],
      "name": "transferOwnership",
      "outputs": [],
      "stateMutability": "nonpayable",
      "type": "function"
    },
    {
      "inputs": [],
      "name": "withdraw",
      "outputs": [],
      "stateMutability": "nonpayable",
      "type": "function"
    },
    {
      "inputs": [],
      "name": "wlminted",
      "outputs": [
        {
          "internalType": "bool",
          "name": "",
          "type": "bool"
        }
      ],
      "stateMutability": "view",
      "type": "function"
    },
    {
      "stateMutability": "payable",
      "type": "receive"
    }
  ],
  "transactionHash": "0xf442d1e8aeebe350f6ddd0366193e5374a18d708312ad5b42e55f46d6aa68c1d",
  "args": [
    "https://smart-dapps-dapps-j97c.vercel.app/api/",
    "0xA9E90303745D238B86213e5fAD364efe5A549dF6"
  ],
  "numDeployments": 1,
  "solcInputHash": "0d7cb709d3c7f3de09049100eac6e97b",
  "bytecode": "0x6080604052662386f26fc10000600b556014600c553480156200002157600080fd5b50604051620045e0380380620045e083398181016040528101906200004791906200041a565b6040518060400160405280600a81526020017f43727970746f44657673000000000000000000000000000000000000000000008152506040518060400160405280600281526020017f43440000000000000000000000000000000000000000000000000000000000008152508160009081620000c49190620006cb565b508060019081620000d69190620006cb565b505050620000f9620000ed6200015460201b60201c565b6200015c60201b60201c565b81600f90816200010a9190620006cb565b5080601060006101000a81548173ffffffffffffffffffffffffffffffffffffffff021916908373ffffffffffffffffffffffffffffffffffffffff1602179055505050620007b2565b600033905090565b6000600a60009054906101000a900473ffffffffffffffffffffffffffffffffffffffff16905081600a60006101000a81548173ffffffffffffffffffffffffffffffffffffffff021916908373ffffffffffffffffffffffffffffffffffffffff1602179055508173ffffffffffffffffffffffffffffffffffffffff168173ffffffffffffffffffffffffffffffffffffffff167f8be0079c531659141344cd1fd0a4f28419497f9722a3daafe3b4186f6b6457e060405160405180910390a35050565b6000604051905090565b600080fd5b600080fd5b600080fd5b600080fd5b6000601f19601f8301169050919050565b7f4e487b7100000000000000000000000000000000000000000000000000000000600052604160045260246000fd5b6200028b8262000240565b810181811067ffffffffffffffff82111715620002ad57620002ac62000251565b5b80604052505050565b6000620002c262000222565b9050620002d0828262000280565b919050565b600067ffffffffffffffff821115620002f357620002f262000251565b5b620002fe8262000240565b9050602081019050919050565b60005b838110156200032b5780820151818401526020810190506200030e565b60008484015250505050565b60006200034e6200034884620002d5565b620002b6565b9050828152602081018484840111156200036d576200036c6200023b565b5b6200037a8482856200030b565b509392505050565b600082601f8301126200039a576200039962000236565b5b8151620003ac84826020860162000337565b91505092915050565b600073ffffffffffffffffffffffffffffffffffffffff82169050919050565b6000620003e282620003b5565b9050919050565b620003f481620003d5565b81146200040057600080fd5b50565b6000815190506200041481620003e9565b92915050565b600080604083850312156200043457620004336200022c565b5b600083015167ffffffffffffffff81111562000455576200045462000231565b5b620004638582860162000382565b9250506020620004768582860162000403565b9150509250929050565b600081519050919050565b7f4e487b7100000000000000000000000000000000000000000000000000000000600052602260045260246000fd5b60006002820490506001821680620004d357607f821691505b602082108103620004e957620004e86200048b565b5b50919050565b60008190508160005260206000209050919050565b60006020601f8301049050919050565b600082821b905092915050565b600060088302620005537fffffffffffffffffffffffffffffffffffffffffffffffffffffffffffffffff8262000514565b6200055f868362000514565b95508019841693508086168417925050509392505050565b6000819050919050565b6000819050919050565b6000620005ac620005a6620005a08462000577565b62000581565b62000577565b9050919050565b6000819050919050565b620005c8836200058b565b620005e0620005d782620005b3565b84845462000521565b825550505050565b600090565b620005f7620005e8565b62000604818484620005bd565b505050565b5b818110156200062c5762000620600082620005ed565b6001810190506200060a565b5050565b601f8211156200067b576200064581620004ef565b620006508462000504565b8101602085101562000660578190505b620006786200066f8562000504565b83018262000609565b50505b505050565b600082821c905092915050565b6000620006a06000198460080262000680565b1980831691505092915050565b6000620006bb83836200068d565b9150826002028217905092915050565b620006d68262000480565b67ffffffffffffffff811115620006f257620006f162000251565b5b620006fe8254620004ba565b6200070b82828562000630565b600060209050601f8311600181146200074357600084156200072e578287015190505b6200073a8582620006ad565b865550620007aa565b601f1984166200075386620004ef565b60005b828110156200077d5784890151825560018201915060208501945060208101905062000756565b868310156200079d578489015162000799601f8916826200068d565b8355505b6001600288020188555050505b505050505050565b613e1e80620007c26000396000f3fe6080604052600436106101dc5760003560e01c806359533d6c11610102578063a076987911610095578063c87b56dd11610064578063c87b56dd14610662578063e580b2b01461069f578063e985e9c5146106ca578063f2fde38b14610707576101e3565b8063a0769879146105bc578063a132aad1146105e7578063a22cb46514610610578063b88d4fde14610639576101e3565b806370a08231116100d157806370a0823114610512578063715018a61461054f5780638da5cb5b1461056657806395d89b4114610591576101e3565b806359533d6c146104755780635f7696211461047f5780636352211e146104aa57806367f718a9146104e7576101e3565b806318160ddd1161017a57806334c738841161014957806334c73884146103ee5780633ccfd60b146103f857806342842e0e1461040f5780634f6ccce714610438576101e3565b806318160ddd14610332578063235b6ea11461035d57806323b872dd146103885780632f745c59146103b1576101e3565b8063081812fc116101b6578063081812fc14610278578063095ea7b3146102b557806316c38b3c146102de57806316c61ccc14610307576101e3565b806301ffc9a7146101e557806304549d6f1461022257806306fdde031461024d576101e3565b366101e357005b005b3480156101f157600080fd5b5061020c60048036038101906102079190612870565b610730565b60405161021991906128b8565b60405180910390f35b34801561022e57600080fd5b506102376107aa565b60405161024491906128b8565b60405180910390f35b34801561025957600080fd5b506102626107bd565b60405161026f9190612963565b60405180910390f35b34801561028457600080fd5b5061029f600480360381019061029a91906129bb565b61084f565b6040516102ac9190612a29565b60405180910390f35b3480156102c157600080fd5b506102dc60048036038101906102d79190612a70565b610895565b005b3480156102ea57600080fd5b5061030560048036038101906103009190612adc565b6109ac565b005b34801561031357600080fd5b5061031c6109d1565b60405161032991906128b8565b60405180910390f35b34801561033e57600080fd5b506103476109e4565b6040516103549190612b18565b60405180910390f35b34801561036957600080fd5b506103726109f1565b60405161037f9190612b18565b60405180910390f35b34801561039457600080fd5b506103af60048036038101906103aa9190612b33565b6109f7565b005b3480156103bd57600080fd5b506103d860048036038101906103d39190612a70565b610a57565b6040516103e59190612b18565b60405180910390f35b6103f6610afc565b005b34801561040457600080fd5b5061040d610c56565b005b34801561041b57600080fd5b5061043660048036038101906104319190612b33565b610d20565b005b34801561044457600080fd5b5061045f600480360381019061045a91906129bb565b610d40565b60405161046c9190612b18565b60405180910390f35b61047d610db1565b005b34801561048b57600080fd5b50610494611012565b6040516104a19190612b18565b60405180910390f35b3480156104b657600080fd5b506104d160048036038101906104cc91906129bb565b611018565b6040516104de9190612a29565b60405180910390f35b3480156104f357600080fd5b506104fc6110c9565b6040516105099190612b18565b60405180910390f35b34801561051e57600080fd5b5061053960048036038101906105349190612b86565b6110da565b6040516105469190612b18565b60405180910390f35b34801561055b57600080fd5b50610564611191565b005b34801561057257600080fd5b5061057b6111a5565b6040516105889190612a29565b60405180910390f35b34801561059d57600080fd5b506105a66111cf565b6040516105b39190612963565b60405180910390f35b3480156105c857600080fd5b506105d1611261565b6040516105de91906128b8565b60405180910390f35b3480156105f357600080fd5b5061060e600480360381019061060991906129bb565b611274565b005b34801561061c57600080fd5b5061063760048036038101906106329190612bb3565b611308565b005b34801561064557600080fd5b50610660600480360381019061065b9190612d28565b61131e565b005b34801561066e57600080fd5b50610689600480360381019061068491906129bb565b611380565b6040516106969190612963565b60405180910390f35b3480156106ab57600080fd5b506106b46113e8565b6040516106c19190612b18565b60405180910390f35b3480156106d657600080fd5b506106f160048036038101906106ec9190612dab565b6113ee565b6040516106fe91906128b8565b60405180910390f35b34801561071357600080fd5b5061072e60048036038101906107299190612b86565b611482565b005b60007f780e9d63000000000000000000000000000000000000000000000000000000007bffffffffffffffffffffffffffffffffffffffffffffffffffffffff1916827bffffffffffffffffffffffffffffffffffffffffffffffffffffffff191614806107a357506107a282611505565b5b9050919050565b600a60159054906101000a900460ff1681565b6060600080546107cc90612e1a565b80601f01602080910402602001604051908101604052809291908181526020018280546107f890612e1a565b80156108455780601f1061081a57610100808354040283529160200191610845565b820191906000526020600020905b81548152906001019060200180831161082857829003601f168201915b5050505050905090565b600061085a826115e7565b6004600083815260200190815260200160002060009054906101000a900473ffffffffffffffffffffffffffffffffffffffff169050919050565b60006108a082611018565b90508073ffffffffffffffffffffffffffffffffffffffff168373ffffffffffffffffffffffffffffffffffffffff1603610910576040517f08c379a000000000000000000000000000000000000000000000000000000000815260040161090790612ebd565b60405180910390fd5b8073ffffffffffffffffffffffffffffffffffffffff1661092f611632565b73ffffffffffffffffffffffffffffffffffffffff16148061095e575061095d81610958611632565b6113ee565b5b61099d576040517f08c379a000000000000000000000000000000000000000000000000000000000815260040161099490612f4f565b60405180910390fd5b6109a7838361163a565b505050565b6109b46116f3565b80600a60146101000a81548160ff02191690831515021790555050565b600a60149054906101000a900460ff1681565b6000600880549050905090565b600b5481565b610a08610a02611632565b82611771565b610a47576040517f08c379a0000000000000000000000000000000000000000000000000000000008152600401610a3e90612fe1565b60405180910390fd5b610a52838383611806565b505050565b6000610a62836110da565b8210610aa3576040517f08c379a0000000000000000000000000000000000000000000000000000000008152600401610a9a90613073565b60405180910390fd5b600660008473ffffffffffffffffffffffffffffffffffffffff1673ffffffffffffffffffffffffffffffffffffffff168152602001908152602001600020600083815260200190815260200160002054905092915050565b600a60149054906101000a900460ff1615610b4c576040517f08c379a0000000000000000000000000000000000000000000000000000000008152600401610b43906130df565b60405180910390fd5b600a60159054906101000a900460ff168015610b695750600e5442115b610ba8576040517f08c379a0000000000000000000000000000000000000000000000000000000008152600401610b9f9061314b565b60405180910390fd5b6000610bb4600d611a6c565b9050600c548110610bfa576040517f08c379a0000000000000000000000000000000000000000000000000000000008152600401610bf1906131dd565b60405180910390fd5b600b54341015610c3f576040517f08c379a0000000000000000000000000000000000000000000000000000000008152600401610c3690613249565b60405180910390fd5b610c49600d611a7a565b610c533382611a90565b50565b610c5e6116f3565b6000610c686111a5565b9050600047905060008273ffffffffffffffffffffffffffffffffffffffff1682604051610c959061329a565b60006040518083038185875af1925050503d8060008114610cd2576040519150601f19603f3d011682016040523d82523d6000602084013e610cd7565b606091505b5050905080610d1b576040517f08c379a0000000000000000000000000000000000000000000000000000000008152600401610d12906132fb565b60405180910390fd5b505050565b610d3b8383836040518060200160405280600081525061131e565b505050565b6000610d4a6109e4565b8210610d8b576040517f08c379a0000000000000000000000000000000000000000000000000000000008152600401610d829061338d565b60405180910390fd5b60088281548110610d9f57610d9e6133ad565b5b90600052602060002001549050919050565b600a60149054906101000a900460ff1615610e01576040517f08c379a0000000000000000000000000000000000000000000000000000000008152600401610df8906130df565b60405180910390fd5b600a60159054906101000a900460ff168015610e1e5750600e5442105b610e5d576040517f08c379a0000000000000000000000000000000000000000000000000000000008152600401610e5490613428565b60405180910390fd5b601060009054906101000a900473ffffffffffffffffffffffffffffffffffffffff1673ffffffffffffffffffffffffffffffffffffffff166306c933d8336040518263ffffffff1660e01b8152600401610eb89190612a29565b602060405180830381865afa158015610ed5573d6000803e3d6000fd5b505050506040513d601f19601f82011682018060405250810190610ef9919061345d565b610f38576040517f08c379a0000000000000000000000000000000000000000000000000000000008152600401610f2f906134d6565b60405180910390fd5b6000610f44600d611a6c565b9050600c548110610f8a576040517f08c379a0000000000000000000000000000000000000000000000000000000008152600401610f81906131dd565b60405180910390fd5b60001515601060149054906101000a900460ff16151514610fe0576040517f08c379a0000000000000000000000000000000000000000000000000000000008152600401610fd790613542565b60405180910390fd5b610fea600d611a7a565b6001601060146101000a81548160ff02191690831515021790555061100f3382611a90565b50565b600c5481565b6000806002600084815260200190815260200160002060009054906101000a900473ffffffffffffffffffffffffffffffffffffffff169050600073ffffffffffffffffffffffffffffffffffffffff168173ffffffffffffffffffffffffffffffffffffffff16036110c0576040517f08c379a00000000000000000000000000000000000000000000000000000000081526004016110b7906135ae565b60405180910390fd5b80915050919050565b60006110d5600d611a6c565b905090565b60008073ffffffffffffffffffffffffffffffffffffffff168273ffffffffffffffffffffffffffffffffffffffff160361114a576040517f08c379a000000000000000000000000000000000000000000000000000000000815260040161114190613640565b60405180910390fd5b600360008373ffffffffffffffffffffffffffffffffffffffff1673ffffffffffffffffffffffffffffffffffffffff168152602001908152602001600020549050919050565b6111996116f3565b6111a36000611aae565b565b6000600a60009054906101000a900473ffffffffffffffffffffffffffffffffffffffff16905090565b6060600180546111de90612e1a565b80601f016020809104026020016040519081016040528092919081815260200182805461120a90612e1a565b80156112575780601f1061122c57610100808354040283529160200191611257565b820191906000526020600020905b81548152906001019060200180831161123a57829003601f168201915b5050505050905090565b601060149054906101000a900460ff1681565b61127c6116f3565b600a60159054906101000a900460ff16156112cc576040517f08c379a00000000000000000000000000000000000000000000000000000000081526004016112c3906136ac565b60405180910390fd5b6001600a60156101000a81548160ff021916908315150217905550603c816112f491906136fb565b426112ff919061373d565b600e8190555050565b61131a611313611632565b8383611b74565b5050565b61132f611329611632565b83611771565b61136e576040517f08c379a000000000000000000000000000000000000000000000000000000000815260040161136590612fe1565b60405180910390fd5b61137a84848484611ce0565b50505050565b606061138b826115e7565b6000611395611d3c565b905060008151116113b557604051806020016040528060008152506113e0565b806113bf84611dce565b6040516020016113d09291906137ad565b6040516020818303038152906040525b915050919050565b600e5481565b6000600560008473ffffffffffffffffffffffffffffffffffffffff1673ffffffffffffffffffffffffffffffffffffffff16815260200190815260200160002060008373ffffffffffffffffffffffffffffffffffffffff1673ffffffffffffffffffffffffffffffffffffffff16815260200190815260200160002060009054906101000a900460ff16905092915050565b61148a6116f3565b600073ffffffffffffffffffffffffffffffffffffffff168173ffffffffffffffffffffffffffffffffffffffff16036114f9576040517f08c379a00000000000000000000000000000000000000000000000000000000081526004016114f090613843565b60405180910390fd5b61150281611aae565b50565b60007f80ac58cd000000000000000000000000000000000000000000000000000000007bffffffffffffffffffffffffffffffffffffffffffffffffffffffff1916827bffffffffffffffffffffffffffffffffffffffffffffffffffffffff191614806115d057507f5b5e139f000000000000000000000000000000000000000000000000000000007bffffffffffffffffffffffffffffffffffffffffffffffffffffffff1916827bffffffffffffffffffffffffffffffffffffffffffffffffffffffff1916145b806115e057506115df82611f2e565b5b9050919050565b6115f081611f98565b61162f576040517f08c379a0000000000000000000000000000000000000000000000000000000008152600401611626906135ae565b60405180910390fd5b50565b600033905090565b816004600083815260200190815260200160002060006101000a81548173ffffffffffffffffffffffffffffffffffffffff021916908373ffffffffffffffffffffffffffffffffffffffff160217905550808273ffffffffffffffffffffffffffffffffffffffff166116ad83611018565b73ffffffffffffffffffffffffffffffffffffffff167f8c5be1e5ebec7d5bd14f71427d1e84f3dd0314c0f7b2291e5b200ac8c7c3b92560405160405180910390a45050565b6116fb611632565b73ffffffffffffffffffffffffffffffffffffffff166117196111a5565b73ffffffffffffffffffffffffffffffffffffffff161461176f576040517f08c379a0000000000000000000000000000000000000000000000000000000008152600401611766906138af565b60405180910390fd5b565b60008061177d83611018565b90508073ffffffffffffffffffffffffffffffffffffffff168473ffffffffffffffffffffffffffffffffffffffff1614806117bf57506117be81856113ee565b5b806117fd57508373ffffffffffffffffffffffffffffffffffffffff166117e58461084f565b73ffffffffffffffffffffffffffffffffffffffff16145b91505092915050565b8273ffffffffffffffffffffffffffffffffffffffff1661182682611018565b73ffffffffffffffffffffffffffffffffffffffff161461187c576040517f08c379a000000000000000000000000000000000000000000000000000000000815260040161187390613941565b60405180910390fd5b600073ffffffffffffffffffffffffffffffffffffffff168273ffffffffffffffffffffffffffffffffffffffff16036118eb576040517f08c379a00000000000000000000000000000000000000000000000000000000081526004016118e2906139d3565b60405180910390fd5b6118f6838383612004565b61190160008261163a565b6001600360008573ffffffffffffffffffffffffffffffffffffffff1673ffffffffffffffffffffffffffffffffffffffff168152602001908152602001600020600082825461195191906139f3565b925050819055506001600360008473ffffffffffffffffffffffffffffffffffffffff1673ffffffffffffffffffffffffffffffffffffffff16815260200190815260200160002060008282546119a8919061373d565b92505081905550816002600083815260200190815260200160002060006101000a81548173ffffffffffffffffffffffffffffffffffffffff021916908373ffffffffffffffffffffffffffffffffffffffff160217905550808273ffffffffffffffffffffffffffffffffffffffff168473ffffffffffffffffffffffffffffffffffffffff167fddf252ad1be2c89b69c2b068fc378daa952ba7f163c4a11628f55a4df523b3ef60405160405180910390a4611a67838383612116565b505050565b600081600001549050919050565b6001816000016000828254019250508190555050565b611aaa82826040518060200160405280600081525061211b565b5050565b6000600a60009054906101000a900473ffffffffffffffffffffffffffffffffffffffff16905081600a60006101000a81548173ffffffffffffffffffffffffffffffffffffffff021916908373ffffffffffffffffffffffffffffffffffffffff1602179055508173ffffffffffffffffffffffffffffffffffffffff168173ffffffffffffffffffffffffffffffffffffffff167f8be0079c531659141344cd1fd0a4f28419497f9722a3daafe3b4186f6b6457e060405160405180910390a35050565b8173ffffffffffffffffffffffffffffffffffffffff168373ffffffffffffffffffffffffffffffffffffffff1603611be2576040517f08c379a0000000000000000000000000000000000000000000000000000000008152600401611bd990613a73565b60405180910390fd5b80600560008573ffffffffffffffffffffffffffffffffffffffff1673ffffffffffffffffffffffffffffffffffffffff16815260200190815260200160002060008473ffffffffffffffffffffffffffffffffffffffff1673ffffffffffffffffffffffffffffffffffffffff16815260200190815260200160002060006101000a81548160ff0219169083151502179055508173ffffffffffffffffffffffffffffffffffffffff168373ffffffffffffffffffffffffffffffffffffffff167f17307eab39ab6107e8899845ad3d59bd9653f200f220920489ca2b5937696c3183604051611cd391906128b8565b60405180910390a3505050565b611ceb848484611806565b611cf784848484612176565b611d36576040517f08c379a0000000000000000000000000000000000000000000000000000000008152600401611d2d90613b05565b60405180910390fd5b50505050565b6060600f8054611d4b90612e1a565b80601f0160208091040260200160405190810160405280929190818152602001828054611d7790612e1a565b8015611dc45780601f10611d9957610100808354040283529160200191611dc4565b820191906000526020600020905b815481529060010190602001808311611da757829003601f168201915b5050505050905090565b606060008203611e15576040518060400160405280600181526020017f30000000000000000000000000000000000000000000000000000000000000008152509050611f29565b600082905060005b60008214611e47578080611e3090613b25565b915050600a82611e409190613b9c565b9150611e1d565b60008167ffffffffffffffff811115611e6357611e62612bfd565b5b6040519080825280601f01601f191660200182016040528015611e955781602001600182028036833780820191505090505b5090505b60008514611f2257600182611eae91906139f3565b9150600a85611ebd9190613bcd565b6030611ec9919061373d565b60f81b818381518110611edf57611ede6133ad565b5b60200101907effffffffffffffffffffffffffffffffffffffffffffffffffffffffffffff1916908160001a905350600a85611f1b9190613b9c565b9450611e99565b8093505050505b919050565b60007f01ffc9a7000000000000000000000000000000000000000000000000000000007bffffffffffffffffffffffffffffffffffffffffffffffffffffffff1916827bffffffffffffffffffffffffffffffffffffffffffffffffffffffff1916149050919050565b60008073ffffffffffffffffffffffffffffffffffffffff166002600084815260200190815260200160002060009054906101000a900473ffffffffffffffffffffffffffffffffffffffff1673ffffffffffffffffffffffffffffffffffffffff1614159050919050565b61200f8383836122fd565b600073ffffffffffffffffffffffffffffffffffffffff168373ffffffffffffffffffffffffffffffffffffffff16036120515761204c81612302565b612090565b8173ffffffffffffffffffffffffffffffffffffffff168373ffffffffffffffffffffffffffffffffffffffff161461208f5761208e838261234b565b5b5b600073ffffffffffffffffffffffffffffffffffffffff168273ffffffffffffffffffffffffffffffffffffffff16036120d2576120cd816124b8565b612111565b8273ffffffffffffffffffffffffffffffffffffffff168273ffffffffffffffffffffffffffffffffffffffff16146121105761210f8282612589565b5b5b505050565b505050565b6121258383612608565b6121326000848484612176565b612171576040517f08c379a000000000000000000000000000000000000000000000000000000000815260040161216890613b05565b60405180910390fd5b505050565b60006121978473ffffffffffffffffffffffffffffffffffffffff166127e1565b156122f0578373ffffffffffffffffffffffffffffffffffffffff1663150b7a026121c0611632565b8786866040518563ffffffff1660e01b81526004016121e29493929190613c53565b6020604051808303816000875af192505050801561221e57506040513d601f19601f8201168201806040525081019061221b9190613cb4565b60015b6122a0573d806000811461224e576040519150601f19603f3d011682016040523d82523d6000602084013e612253565b606091505b506000815103612298576040517f08c379a000000000000000000000000000000000000000000000000000000000815260040161228f90613b05565b60405180910390fd5b805181602001fd5b63150b7a0260e01b7bffffffffffffffffffffffffffffffffffffffffffffffffffffffff1916817bffffffffffffffffffffffffffffffffffffffffffffffffffffffff1916149150506122f5565b600190505b949350505050565b505050565b6008805490506009600083815260200190815260200160002081905550600881908060018154018082558091505060019003906000526020600020016000909190919091505550565b60006001612358846110da565b61236291906139f3565b9050600060076000848152602001908152602001600020549050818114612447576000600660008673ffffffffffffffffffffffffffffffffffffffff1673ffffffffffffffffffffffffffffffffffffffff168152602001908152602001600020600084815260200190815260200160002054905080600660008773ffffffffffffffffffffffffffffffffffffffff1673ffffffffffffffffffffffffffffffffffffffff168152602001908152602001600020600084815260200190815260200160002081905550816007600083815260200190815260200160002081905550505b6007600084815260200190815260200160002060009055600660008573ffffffffffffffffffffffffffffffffffffffff1673ffffffffffffffffffffffffffffffffffffffff16815260200190815260200160002060008381526020019081526020016000206000905550505050565b600060016008805490506124cc91906139f3565b90506000600960008481526020019081526020016000205490506000600883815481106124fc576124fb6133ad565b5b90600052602060002001549050806008838154811061251e5761251d6133ad565b5b90600052602060002001819055508160096000838152602001908152602001600020819055506009600085815260200190815260200160002060009055600880548061256d5761256c613ce1565b5b6001900381819060005260206000200160009055905550505050565b6000612594836110da565b905081600660008573ffffffffffffffffffffffffffffffffffffffff1673ffffffffffffffffffffffffffffffffffffffff168152602001908152602001600020600083815260200190815260200160002081905550806007600084815260200190815260200160002081905550505050565b600073ffffffffffffffffffffffffffffffffffffffff168273ffffffffffffffffffffffffffffffffffffffff1603612677576040517f08c379a000000000000000000000000000000000000000000000000000000000815260040161266e90613d5c565b60405180910390fd5b61268081611f98565b156126c0576040517f08c379a00000000000000000000000000000000000000000000000000000000081526004016126b790613dc8565b60405180910390fd5b6126cc60008383612004565b6001600360008473ffffffffffffffffffffffffffffffffffffffff1673ffffffffffffffffffffffffffffffffffffffff168152602001908152602001600020600082825461271c919061373d565b92505081905550816002600083815260200190815260200160002060006101000a81548173ffffffffffffffffffffffffffffffffffffffff021916908373ffffffffffffffffffffffffffffffffffffffff160217905550808273ffffffffffffffffffffffffffffffffffffffff16600073ffffffffffffffffffffffffffffffffffffffff167fddf252ad1be2c89b69c2b068fc378daa952ba7f163c4a11628f55a4df523b3ef60405160405180910390a46127dd60008383612116565b5050565b6000808273ffffffffffffffffffffffffffffffffffffffff163b119050919050565b6000604051905090565b600080fd5b600080fd5b60007fffffffff0000000000000000000000000000000000000000000000000000000082169050919050565b61284d81612818565b811461285857600080fd5b50565b60008135905061286a81612844565b92915050565b6000602082840312156128865761288561280e565b5b60006128948482850161285b565b91505092915050565b60008115159050919050565b6128b28161289d565b82525050565b60006020820190506128cd60008301846128a9565b92915050565b600081519050919050565b600082825260208201905092915050565b60005b8381101561290d5780820151818401526020810190506128f2565b60008484015250505050565b6000601f19601f8301169050919050565b6000612935826128d3565b61293f81856128de565b935061294f8185602086016128ef565b61295881612919565b840191505092915050565b6000602082019050818103600083015261297d818461292a565b905092915050565b6000819050919050565b61299881612985565b81146129a357600080fd5b50565b6000813590506129b58161298f565b92915050565b6000602082840312156129d1576129d061280e565b5b60006129df848285016129a6565b91505092915050565b600073ffffffffffffffffffffffffffffffffffffffff82169050919050565b6000612a13826129e8565b9050919050565b612a2381612a08565b82525050565b6000602082019050612a3e6000830184612a1a565b92915050565b612a4d81612a08565b8114612a5857600080fd5b50565b600081359050612a6a81612a44565b92915050565b60008060408385031215612a8757612a8661280e565b5b6000612a9585828601612a5b565b9250506020612aa6858286016129a6565b9150509250929050565b612ab98161289d565b8114612ac457600080fd5b50565b600081359050612ad681612ab0565b92915050565b600060208284031215612af257612af161280e565b5b6000612b0084828501612ac7565b91505092915050565b612b1281612985565b82525050565b6000602082019050612b2d6000830184612b09565b92915050565b600080600060608486031215612b4c57612b4b61280e565b5b6000612b5a86828701612a5b565b9350506020612b6b86828701612a5b565b9250506040612b7c868287016129a6565b9150509250925092565b600060208284031215612b9c57612b9b61280e565b5b6000612baa84828501612a5b565b91505092915050565b60008060408385031215612bca57612bc961280e565b5b6000612bd885828601612a5b565b9250506020612be985828601612ac7565b9150509250929050565b600080fd5b600080fd5b7f4e487b7100000000000000000000000000000000000000000000000000000000600052604160045260246000fd5b612c3582612919565b810181811067ffffffffffffffff82111715612c5457612c53612bfd565b5b80604052505050565b6000612c67612804565b9050612c738282612c2c565b919050565b600067ffffffffffffffff821115612c9357612c92612bfd565b5b612c9c82612919565b9050602081019050919050565b82818337600083830152505050565b6000612ccb612cc684612c78565b612c5d565b905082815260208101848484011115612ce757612ce6612bf8565b5b612cf2848285612ca9565b509392505050565b600082601f830112612d0f57612d0e612bf3565b5b8135612d1f848260208601612cb8565b91505092915050565b60008060008060808587031215612d4257612d4161280e565b5b6000612d5087828801612a5b565b9450506020612d6187828801612a5b565b9350506040612d72878288016129a6565b925050606085013567ffffffffffffffff811115612d9357612d92612813565b5b612d9f87828801612cfa565b91505092959194509250565b60008060408385031215612dc257612dc161280e565b5b6000612dd085828601612a5b565b9250506020612de185828601612a5b565b9150509250929050565b7f4e487b7100000000000000000000000000000000000000000000000000000000600052602260045260246000fd5b60006002820490506001821680612e3257607f821691505b602082108103612e4557612e44612deb565b5b50919050565b7f4552433732313a20617070726f76616c20746f2063757272656e74206f776e6560008201527f7200000000000000000000000000000000000000000000000000000000000000602082015250565b6000612ea76021836128de565b9150612eb282612e4b565b604082019050919050565b60006020820190508181036000830152612ed681612e9a565b9050919050565b7f4552433732313a20617070726f76652063616c6c6572206973206e6f7420746f60008201527f6b656e206f776e6572206e6f7220617070726f76656420666f7220616c6c0000602082015250565b6000612f39603e836128de565b9150612f4482612edd565b604082019050919050565b60006020820190508181036000830152612f6881612f2c565b9050919050565b7f4552433732313a2063616c6c6572206973206e6f7420746f6b656e206f776e6560008201527f72206e6f7220617070726f766564000000000000000000000000000000000000602082015250565b6000612fcb602e836128de565b9150612fd682612f6f565b604082019050919050565b60006020820190508181036000830152612ffa81612fbe565b9050919050565b7f455243373231456e756d657261626c653a206f776e657220696e646578206f7560008201527f74206f6620626f756e6473000000000000000000000000000000000000000000602082015250565b600061305d602b836128de565b915061306882613001565b604082019050919050565b6000602082019050818103600083015261308c81613050565b9050919050565b7f436f6e74726163742063757272656e746c792070617573656400000000000000600082015250565b60006130c96019836128de565b91506130d482613093565b602082019050919050565b600060208201905081810360008301526130f8816130bc565b9050919050565b7f50726573616c6520686173206e6f7420656e6465642079657400000000000000600082015250565b60006131356019836128de565b9150613140826130ff565b602082019050919050565b6000602082019050818103600083015261316481613128565b9050919050565b7f4578636565646564206d6178696d756d2043727970746f20446576732073757060008201527f706c790000000000000000000000000000000000000000000000000000000000602082015250565b60006131c76023836128de565b91506131d28261316b565b604082019050919050565b600060208201905081810360008301526131f6816131ba565b9050919050565b7f45746865722073656e74206973206e6f7420636f727265637400000000000000600082015250565b60006132336019836128de565b915061323e826131fd565b602082019050919050565b6000602082019050818103600083015261326281613226565b9050919050565b600081905092915050565b50565b6000613284600083613269565b915061328f82613274565b600082019050919050565b60006132a582613277565b9150819050919050565b7f4661696c656420746f2073656e64204574686572000000000000000000000000600082015250565b60006132e56014836128de565b91506132f0826132af565b602082019050919050565b60006020820190508181036000830152613314816132d8565b9050919050565b7f455243373231456e756d657261626c653a20676c6f62616c20696e646578206f60008201527f7574206f6620626f756e64730000000000000000000000000000000000000000602082015250565b6000613377602c836128de565b91506133828261331b565b604082019050919050565b600060208201905081810360008301526133a68161336a565b9050919050565b7f4e487b7100000000000000000000000000000000000000000000000000000000600052603260045260246000fd5b7f50726573616c65206973206e6f742072756e6e696e6700000000000000000000600082015250565b60006134126016836128de565b915061341d826133dc565b602082019050919050565b6000602082019050818103600083015261344181613405565b9050919050565b60008151905061345781612ab0565b92915050565b6000602082840312156134735761347261280e565b5b600061348184828501613448565b91505092915050565b7f596f7520617265206e6f742077686974656c6973746564000000000000000000600082015250565b60006134c06017836128de565b91506134cb8261348a565b602082019050919050565b600060208201905081810360008301526134ef816134b3565b9050919050565b7f596f752061726520616c7265616479206d696e74656421000000000000000000600082015250565b600061352c6017836128de565b9150613537826134f6565b602082019050919050565b6000602082019050818103600083015261355b8161351f565b9050919050565b7f4552433732313a20696e76616c696420746f6b656e2049440000000000000000600082015250565b60006135986018836128de565b91506135a382613562565b602082019050919050565b600060208201905081810360008301526135c78161358b565b9050919050565b7f4552433732313a2061646472657373207a65726f206973206e6f74206120766160008201527f6c6964206f776e65720000000000000000000000000000000000000000000000602082015250565b600061362a6029836128de565b9150613635826135ce565b604082019050919050565b600060208201905081810360008301526136598161361d565b9050919050565b7f70726573616c6520686173207374617274656421000000000000000000000000600082015250565b60006136966014836128de565b91506136a182613660565b602082019050919050565b600060208201905081810360008301526136c581613689565b9050919050565b7f4e487b7100000000000000000000000000000000000000000000000000000000600052601160045260246000fd5b600061370682612985565b915061371183612985565b925082820261371f81612985565b91508282048414831517613736576137356136cc565b5b5092915050565b600061374882612985565b915061375383612985565b925082820190508082111561376b5761376a6136cc565b5b92915050565b600081905092915050565b6000613787826128d3565b6137918185613771565b93506137a18185602086016128ef565b80840191505092915050565b60006137b9828561377c565b91506137c5828461377c565b91508190509392505050565b7f4f776e61626c653a206e6577206f776e657220697320746865207a65726f206160008201527f6464726573730000000000000000000000000000000000000000000000000000602082015250565b600061382d6026836128de565b9150613838826137d1565b604082019050919050565b6000602082019050818103600083015261385c81613820565b9050919050565b7f4f776e61626c653a2063616c6c6572206973206e6f7420746865206f776e6572600082015250565b60006138996020836128de565b91506138a482613863565b602082019050919050565b600060208201905081810360008301526138c88161388c565b9050919050565b7f4552433732313a207472616e736665722066726f6d20696e636f72726563742060008201527f6f776e6572000000000000000000000000000000000000000000000000000000602082015250565b600061392b6025836128de565b9150613936826138cf565b604082019050919050565b6000602082019050818103600083015261395a8161391e565b9050919050565b7f4552433732313a207472616e7366657220746f20746865207a65726f2061646460008201527f7265737300000000000000000000000000000000000000000000000000000000602082015250565b60006139bd6024836128de565b91506139c882613961565b604082019050919050565b600060208201905081810360008301526139ec816139b0565b9050919050565b60006139fe82612985565b9150613a0983612985565b9250828203905081811115613a2157613a206136cc565b5b92915050565b7f4552433732313a20617070726f766520746f2063616c6c657200000000000000600082015250565b6000613a5d6019836128de565b9150613a6882613a27565b602082019050919050565b60006020820190508181036000830152613a8c81613a50565b9050919050565b7f4552433732313a207472616e7366657220746f206e6f6e20455243373231526560008201527f63656976657220696d706c656d656e7465720000000000000000000000000000602082015250565b6000613aef6032836128de565b9150613afa82613a93565b604082019050919050565b60006020820190508181036000830152613b1e81613ae2565b9050919050565b6000613b3082612985565b91507fffffffffffffffffffffffffffffffffffffffffffffffffffffffffffffffff8203613b6257613b616136cc565b5b600182019050919050565b7f4e487b7100000000000000000000000000000000000000000000000000000000600052601260045260246000fd5b6000613ba782612985565b9150613bb283612985565b925082613bc257613bc1613b6d565b5b828204905092915050565b6000613bd882612985565b9150613be383612985565b925082613bf357613bf2613b6d565b5b828206905092915050565b600081519050919050565b600082825260208201905092915050565b6000613c2582613bfe565b613c2f8185613c09565b9350613c3f8185602086016128ef565b613c4881612919565b840191505092915050565b6000608082019050613c686000830187612a1a565b613c756020830186612a1a565b613c826040830185612b09565b8181036060830152613c948184613c1a565b905095945050505050565b600081519050613cae81612844565b92915050565b600060208284031215613cca57613cc961280e565b5b6000613cd884828501613c9f565b91505092915050565b7f4e487b7100000000000000000000000000000000000000000000000000000000600052603160045260246000fd5b7f4552433732313a206d696e7420746f20746865207a65726f2061646472657373600082015250565b6000613d466020836128de565b9150613d5182613d10565b602082019050919050565b60006020820190508181036000830152613d7581613d39565b9050919050565b7f4552433732313a20746f6b656e20616c7265616479206d696e74656400000000600082015250565b6000613db2601c836128de565b9150613dbd82613d7c565b602082019050919050565b60006020820190508181036000830152613de181613da5565b905091905056fea2646970667358221220a360b9da1a7850a9eb0cc13e70aaf8745d23e6af105f15354834e507b345ea0264736f6c63430008110033",
  "devdoc": {
    "kind": "dev",
    "methods": {
      "approve(address,uint256)": {
        "details": "See {IERC721-approve}."
      },
      "balanceOf(address)": {
        "details": "See {IERC721-balanceOf}."
      },
      "getApproved(uint256)": {
        "details": "See {IERC721-getApproved}."
      },
      "isApprovedForAll(address,address)": {
        "details": "See {IERC721-isApprovedForAll}."
      },
      "name()": {
        "details": "See {IERC721Metadata-name}."
      },
      "owner()": {
        "details": "Returns the address of the current owner."
      },
      "ownerOf(uint256)": {
        "details": "See {IERC721-ownerOf}."
      },
      "renounceOwnership()": {
        "details": "Leaves the contract without owner. It will not be possible to call `onlyOwner` functions anymore. Can only be called by the current owner. NOTE: Renouncing ownership will leave the contract without an owner, thereby removing any functionality that is only available to the owner."
      },
      "safeTransferFrom(address,address,uint256)": {
        "details": "See {IERC721-safeTransferFrom}."
      },
      "safeTransferFrom(address,address,uint256,bytes)": {
        "details": "See {IERC721-safeTransferFrom}."
      },
      "setApprovalForAll(address,bool)": {
        "details": "See {IERC721-setApprovalForAll}."
      },
      "supportsInterface(bytes4)": {
        "details": "See {IERC165-supportsInterface}."
      },
      "symbol()": {
        "details": "See {IERC721Metadata-symbol}."
      },
      "tokenByIndex(uint256)": {
        "details": "See {IERC721Enumerable-tokenByIndex}."
      },
      "tokenOfOwnerByIndex(address,uint256)": {
        "details": "See {IERC721Enumerable-tokenOfOwnerByIndex}."
      },
      "tokenURI(uint256)": {
        "details": "See {IERC721Metadata-tokenURI}."
      },
      "totalSupply()": {
        "details": "See {IERC721Enumerable-totalSupply}."
      },
      "transferFrom(address,address,uint256)": {
        "details": "See {IERC721-transferFrom}."
      },
      "transferOwnership(address)": {
        "details": "Transfers ownership of the contract to a new account (`newOwner`). Can only be called by the current owner."
      }
    },
    "version": 1
  },
  "userdoc": {
    "kind": "user",
    "methods": {},
    "version": 1
  },
  "storageLayout": {
    "storage": [
      {
        "astId": 138,
        "contract": "contracts/CryptoDevs.sol:CryptoDevs",
        "label": "_name",
        "offset": 0,
        "slot": "0",
        "type": "t_string_storage"
      },
      {
        "astId": 140,
        "contract": "contracts/CryptoDevs.sol:CryptoDevs",
        "label": "_symbol",
        "offset": 0,
        "slot": "1",
        "type": "t_string_storage"
      },
      {
        "astId": 144,
        "contract": "contracts/CryptoDevs.sol:CryptoDevs",
        "label": "_owners",
        "offset": 0,
        "slot": "2",
        "type": "t_mapping(t_uint256,t_address)"
      },
      {
        "astId": 148,
        "contract": "contracts/CryptoDevs.sol:CryptoDevs",
        "label": "_balances",
        "offset": 0,
        "slot": "3",
        "type": "t_mapping(t_address,t_uint256)"
      },
      {
        "astId": 152,
        "contract": "contracts/CryptoDevs.sol:CryptoDevs",
        "label": "_tokenApprovals",
        "offset": 0,
        "slot": "4",
        "type": "t_mapping(t_uint256,t_address)"
      },
      {
        "astId": 158,
        "contract": "contracts/CryptoDevs.sol:CryptoDevs",
        "label": "_operatorApprovals",
        "offset": 0,
        "slot": "5",
        "type": "t_mapping(t_address,t_mapping(t_address,t_bool))"
      },
      {
        "astId": 1128,
        "contract": "contracts/CryptoDevs.sol:CryptoDevs",
        "label": "_ownedTokens",
        "offset": 0,
        "slot": "6",
        "type": "t_mapping(t_address,t_mapping(t_uint256,t_uint256))"
      },
      {
        "astId": 1132,
        "contract": "contracts/CryptoDevs.sol:CryptoDevs",
        "label": "_ownedTokensIndex",
        "offset": 0,
        "slot": "7",
        "type": "t_mapping(t_uint256,t_uint256)"
      },
      {
        "astId": 1135,
        "contract": "contracts/CryptoDevs.sol:CryptoDevs",
        "label": "_allTokens",
        "offset": 0,
        "slot": "8",
        "type": "t_array(t_uint256)dyn_storage"
      },
      {
        "astId": 1139,
        "contract": "contracts/CryptoDevs.sol:CryptoDevs",
        "label": "_allTokensIndex",
        "offset": 0,
        "slot": "9",
        "type": "t_mapping(t_uint256,t_uint256)"
      },
      {
        "astId": 7,
        "contract": "contracts/CryptoDevs.sol:CryptoDevs",
        "label": "_owner",
        "offset": 0,
        "slot": "10",
        "type": "t_address"
      },
      {
        "astId": 2178,
        "contract": "contracts/CryptoDevs.sol:CryptoDevs",
        "label": "_paused",
        "offset": 20,
        "slot": "10",
        "type": "t_bool"
      },
      {
        "astId": 2180,
        "contract": "contracts/CryptoDevs.sol:CryptoDevs",
        "label": "presaleStarted",
        "offset": 21,
        "slot": "10",
        "type": "t_bool"
      },
      {
        "astId": 2183,
        "contract": "contracts/CryptoDevs.sol:CryptoDevs",
        "label": "_price",
        "offset": 0,
        "slot": "11",
        "type": "t_uint256"
      },
      {
        "astId": 2186,
        "contract": "contracts/CryptoDevs.sol:CryptoDevs",
        "label": "maxTokenIds",
        "offset": 0,
        "slot": "12",
        "type": "t_uint256"
      },
      {
        "astId": 2189,
        "contract": "contracts/CryptoDevs.sol:CryptoDevs",
        "label": "tokenIds",
        "offset": 0,
        "slot": "13",
        "type": "t_struct(Counter)1832_storage"
      },
      {
        "astId": 2191,
        "contract": "contracts/CryptoDevs.sol:CryptoDevs",
        "label": "presaleEnded",
        "offset": 0,
        "slot": "14",
        "type": "t_uint256"
      },
      {
        "astId": 2193,
        "contract": "contracts/CryptoDevs.sol:CryptoDevs",
        "label": "_baseTokenURI",
        "offset": 0,
        "slot": "15",
        "type": "t_string_storage"
      },
      {
        "astId": 2196,
        "contract": "contracts/CryptoDevs.sol:CryptoDevs",
        "label": "whitelist",
        "offset": 0,
        "slot": "16",
        "type": "t_contract(IWhiteList)2448"
      },
      {
        "astId": 2198,
        "contract": "contracts/CryptoDevs.sol:CryptoDevs",
        "label": "wlminted",
        "offset": 20,
        "slot": "16",
        "type": "t_bool"
      }
    ],
    "types": {
      "t_address": {
        "encoding": "inplace",
        "label": "address",
        "numberOfBytes": "20"
      },
      "t_array(t_uint256)dyn_storage": {
        "base": "t_uint256",
        "encoding": "dynamic_array",
        "label": "uint256[]",
        "numberOfBytes": "32"
      },
      "t_bool": {
        "encoding": "inplace",
        "label": "bool",
        "numberOfBytes": "1"
      },
      "t_contract(IWhiteList)2448": {
        "encoding": "inplace",
        "label": "contract IWhiteList",
        "numberOfBytes": "20"
      },
      "t_mapping(t_address,t_bool)": {
        "encoding": "mapping",
        "key": "t_address",
        "label": "mapping(address => bool)",
        "numberOfBytes": "32",
        "value": "t_bool"
      },
      "t_mapping(t_address,t_mapping(t_address,t_bool))": {
        "encoding": "mapping",
        "key": "t_address",
        "label": "mapping(address => mapping(address => bool))",
        "numberOfBytes": "32",
        "value": "t_mapping(t_address,t_bool)"
      },
      "t_mapping(t_address,t_mapping(t_uint256,t_uint256))": {
        "encoding": "mapping",
        "key": "t_address",
        "label": "mapping(address => mapping(uint256 => uint256))",
        "numberOfBytes": "32",
        "value": "t_mapping(t_uint256,t_uint256)"
      },
      "t_mapping(t_address,t_uint256)": {
        "encoding": "mapping",
        "key": "t_address",
        "label": "mapping(address => uint256)",
        "numberOfBytes": "32",
        "value": "t_uint256"
      },
      "t_mapping(t_uint256,t_address)": {
        "encoding": "mapping",
        "key": "t_uint256",
        "label": "mapping(uint256 => address)",
        "numberOfBytes": "32",
        "value": "t_address"
      },
      "t_mapping(t_uint256,t_uint256)": {
        "encoding": "mapping",
        "key": "t_uint256",
        "label": "mapping(uint256 => uint256)",
        "numberOfBytes": "32",
        "value": "t_uint256"
      },
      "t_string_storage": {
        "encoding": "bytes",
        "label": "string",
        "numberOfBytes": "32"
      },
      "t_struct(Counter)1832_storage": {
        "encoding": "inplace",
        "label": "struct Counters.Counter",
        "members": [
          {
            "astId": 1831,
            "contract": "contracts/CryptoDevs.sol:CryptoDevs",
            "label": "_value",
            "offset": 0,
            "slot": "0",
            "type": "t_uint256"
          }
        ],
        "numberOfBytes": "32"
      },
      "t_uint256": {
        "encoding": "inplace",
        "label": "uint256",
        "numberOfBytes": "32"
      }
    }
  }
}